{
  "_format": "hh-sol-artifact-1",
  "contractName": "CounterfeitReportContract",
  "sourceName": "contracts/CounterfeitReportContract.sol",
  "abi": [
    {
      "inputs": [
        {
          "internalType": "address",
          "name": "_productRegistrationContract",
          "type": "address"
        }
      ],
      "stateMutability": "nonpayable",
      "type": "constructor"
    },
    {
      "inputs": [],
      "name": "InvalidReportIndex",
      "type": "error"
    },
    {
      "inputs": [],
      "name": "onlyOwner",
      "type": "error"
    },
    {
      "inputs": [],
      "name": "productNotRegistered",
      "type": "error"
    },
    {
      "anonymous": false,
      "inputs": [
        {
          "indexed": true,
          "internalType": "uint256",
          "name": "productId",
          "type": "uint256"
        },
        {
          "indexed": false,
          "internalType": "string",
          "name": "message",
          "type": "string"
        }
      ],
      "name": "AlertIssued",
      "type": "event"
    },
    {
      "anonymous": false,
      "inputs": [
        {
          "indexed": true,
          "internalType": "uint256",
          "name": "productId",
          "type": "uint256"
        },
        {
          "indexed": true,
          "internalType": "address",
          "name": "reporter",
          "type": "address"
        },
        {
          "indexed": false,
          "internalType": "string",
          "name": "details",
          "type": "string"
        }
      ],
      "name": "CounterfeitReported",
      "type": "event"
    },
    {
      "anonymous": false,
      "inputs": [
        {
          "indexed": true,
          "internalType": "uint256",
          "name": "productId",
          "type": "uint256"
        },
        {
          "indexed": false,
          "internalType": "uint256",
          "name": "reportIndex",
          "type": "uint256"
        }
      ],
      "name": "ReportResolved",
      "type": "event"
    },
    {
      "inputs": [
        {
          "internalType": "string",
          "name": "_serialNumber",
          "type": "string"
        }
      ],
      "name": "getReports",
      "outputs": [],
      "stateMutability": "view",
      "type": "function"
    },
    {
      "inputs": [
        {
          "internalType": "string",
          "name": "_serialNumber",
          "type": "string"
        },
        {
          "internalType": "string",
          "name": "_details",
          "type": "string"
        }
      ],
      "name": "reportCounterfeit",
      "outputs": [],
      "stateMutability": "nonpayable",
      "type": "function"
    },
    {
      "inputs": [],
      "name": "s_alertThreshold",
      "outputs": [
        {
          "internalType": "uint256",
          "name": "",
          "type": "uint256"
        }
      ],
      "stateMutability": "view",
      "type": "function"
    },
    {
      "inputs": [
        {
          "internalType": "uint256",
          "name": "",
          "type": "uint256"
        },
        {
          "internalType": "uint256",
          "name": "",
          "type": "uint256"
        }
      ],
      "name": "s_counterfeitReports",
      "outputs": [
        {
          "internalType": "string",
          "name": "serialNumber",
          "type": "string"
        },
        {
          "internalType": "address",
          "name": "reporter",
          "type": "address"
        },
        {
          "internalType": "string",
          "name": "details",
          "type": "string"
        },
        {
          "internalType": "uint256",
          "name": "reportDate",
          "type": "uint256"
        }
      ],
      "stateMutability": "view",
      "type": "function"
    },
    {
      "inputs": [],
      "name": "s_owner",
      "outputs": [
        {
          "internalType": "address",
          "name": "",
          "type": "address"
        }
      ],
      "stateMutability": "view",
      "type": "function"
    }
  ],
  "bytecode": "0x60806040526003805534801561001457600080fd5b50604051610cb3380380610cb383398181016040528101906100369190610121565b33600160006101000a81548173ffffffffffffffffffffffffffffffffffffffff021916908373ffffffffffffffffffffffffffffffffffffffff16021790555080600260006101000a81548173ffffffffffffffffffffffffffffffffffffffff021916908373ffffffffffffffffffffffffffffffffffffffff1602179055505061014e565b600080fd5b600073ffffffffffffffffffffffffffffffffffffffff82169050919050565b60006100ee826100c3565b9050919050565b6100fe816100e3565b811461010957600080fd5b50565b60008151905061011b816100f5565b92915050565b600060208284031215610137576101366100be565b5b60006101458482850161010c565b91505092915050565b610b568061015d6000396000f3fe608060405234801561001057600080fd5b50600436106100575760003560e01c80631a68638a1461005c57806321b5f834146100785780636b4d2a74146100ab578063b90e5986146100c9578063e3978240146100e5575b600080fd5b6100766004803603810190610071919061053e565b610103565b005b610092600480360381019061008d91906105bd565b6101a8565b6040516100a294939291906106cc565b60405180910390f35b6100b3610325565b6040516100c0919061071f565b60405180910390f35b6100e360048036038101906100de919061073a565b61032b565b005b6100ed6103be565b6040516100fa91906107b2565b60405180910390f35b600260009054906101000a900473ffffffffffffffffffffffffffffffffffffffff1673ffffffffffffffffffffffffffffffffffffffff16631a68638a826040518263ffffffff1660e01b815260040161015e91906107cd565b600060405180830381865afa15801561017b573d6000803e3d6000fd5b505050506040513d6000823e3d601f19601f820116820180604052508101906101a49190610a40565b5050565b600060205281600052604060002081815481106101c457600080fd5b9060005260206000209060040201600091509150508060000180546101e890610ab8565b80601f016020809104026020016040519081016040528092919081815260200182805461021490610ab8565b80156102615780601f1061023657610100808354040283529160200191610261565b820191906000526020600020905b81548152906001019060200180831161024457829003601f168201915b5050505050908060010160009054906101000a900473ffffffffffffffffffffffffffffffffffffffff169080600201805461029c90610ab8565b80601f01602080910402602001604051908101604052809291908181526020018280546102c890610ab8565b80156103155780601f106102ea57610100808354040283529160200191610315565b820191906000526020600020905b8154815290600101906020018083116102f857829003601f168201915b5050505050908060030154905084565b60035481565b600260009054906101000a900473ffffffffffffffffffffffffffffffffffffffff1673ffffffffffffffffffffffffffffffffffffffff16635abdd44f83836040518363ffffffff1660e01b8152600401610388929190610ae9565b600060405180830381600087803b1580156103a257600080fd5b505af11580156103b6573d6000803e3d6000fd5b505050505050565b600160009054906101000a900473ffffffffffffffffffffffffffffffffffffffff1681565b6000604051905090565b600080fd5b600080fd5b600080fd5b600080fd5b6000601f19601f8301169050919050565b7f4e487b7100000000000000000000000000000000000000000000000000000000600052604160045260246000fd5b61044b82610402565b810181811067ffffffffffffffff8211171561046a57610469610413565b5b80604052505050565b600061047d6103e4565b90506104898282610442565b919050565b600067ffffffffffffffff8211156104a9576104a8610413565b5b6104b282610402565b9050602081019050919050565b82818337600083830152505050565b60006104e16104dc8461048e565b610473565b9050828152602081018484840111156104fd576104fc6103fd565b5b6105088482856104bf565b509392505050565b600082601f830112610525576105246103f8565b5b81356105358482602086016104ce565b91505092915050565b600060208284031215610554576105536103ee565b5b600082013567ffffffffffffffff811115610572576105716103f3565b5b61057e84828501610510565b91505092915050565b6000819050919050565b61059a81610587565b81146105a557600080fd5b50565b6000813590506105b781610591565b92915050565b600080604083850312156105d4576105d36103ee565b5b60006105e2858286016105a8565b92505060206105f3858286016105a8565b9150509250929050565b600081519050919050565b600082825260208201905092915050565b60005b8381101561063757808201518184015260208101905061061c565b60008484015250505050565b600061064e826105fd565b6106588185610608565b9350610668818560208601610619565b61067181610402565b840191505092915050565b600073ffffffffffffffffffffffffffffffffffffffff82169050919050565b60006106a78261067c565b9050919050565b6106b78161069c565b82525050565b6106c681610587565b82525050565b600060808201905081810360008301526106e68187610643565b90506106f560208301866106ae565b81810360408301526107078185610643565b905061071660608301846106bd565b95945050505050565b600060208201905061073460008301846106bd565b92915050565b60008060408385031215610751576107506103ee565b5b600083013567ffffffffffffffff81111561076f5761076e6103f3565b5b61077b85828601610510565b925050602083013567ffffffffffffffff81111561079c5761079b6103f3565b5b6107a885828601610510565b9150509250929050565b60006020820190506107c760008301846106ae565b92915050565b600060208201905081810360008301526107e78184610643565b905092915050565b600067ffffffffffffffff82111561080a57610809610413565b5b602082029050602081019050919050565b600080fd5b600080fd5b600080fd5b600061083d6108388461048e565b610473565b905082815260208101848484011115610859576108586103fd565b5b610864848285610619565b509392505050565b600082601f830112610881576108806103f8565b5b815161089184826020860161082a565b91505092915050565b6108a38161069c565b81146108ae57600080fd5b50565b6000815190506108c08161089a565b92915050565b6000815190506108d581610591565b92915050565b6000608082840312156108f1576108f0610820565b5b6108fb6080610473565b9050600082015167ffffffffffffffff81111561091b5761091a610825565b5b6109278482850161086c565b600083015250602061093b848285016108b1565b602083015250604082015167ffffffffffffffff81111561095f5761095e610825565b5b61096b8482850161086c565b604083015250606061097f848285016108c6565b60608301525092915050565b600061099e610999846107ef565b610473565b905080838252602082019050602084028301858111156109c1576109c061081b565b5b835b81811015610a0857805167ffffffffffffffff8111156109e6576109e56103f8565b5b8086016109f389826108db565b855260208501945050506020810190506109c3565b5050509392505050565b600082601f830112610a2757610a266103f8565b5b8151610a3784826020860161098b565b91505092915050565b600060208284031215610a5657610a556103ee565b5b600082015167ffffffffffffffff811115610a7457610a736103f3565b5b610a8084828501610a12565b91505092915050565b7f4e487b7100000000000000000000000000000000000000000000000000000000600052602260045260246000fd5b60006002820490506001821680610ad057607f821691505b602082108103610ae357610ae2610a89565b5b50919050565b60006040820190508181036000830152610b038185610643565b90508181036020830152610b178184610643565b9050939250505056fea2646970667358221220a59d31485ac6e3b1e0719d7008621068ea63959632dc8045464dec1188fdafb664736f6c63430008180033",
  "linkReferences": {},
  "deployedLinkReferences": {}
}