{
  "_format": "hh-sol-artifact-1",
  "contractName": "UserManagement",
  "sourceName": "contracts/UserManagement.sol",
  "abi": [
    {
      "inputs": [],
      "stateMutability": "nonpayable",
      "type": "constructor"
    },
    {
      "inputs": [],
      "name": "invalidUserRole",
      "type": "error"
    },
    {
      "inputs": [],
      "name": "onlyAdmin",
      "type": "error"
    },
    {
      "inputs": [],
      "name": "userAlreadyExists",
      "type": "error"
    },
    {
      "anonymous": false,
      "inputs": [
        {
          "indexed": false,
          "internalType": "address",
          "name": "_address",
          "type": "address"
        },
        {
          "indexed": false,
          "internalType": "enum UserRole",
          "name": "_role",
          "type": "uint8"
        }
      ],
      "name": "NewRegistrationEvent",
      "type": "event"
    },
    {
      "inputs": [
        {
          "internalType": "address",
          "name": "_address",
          "type": "address"
        }
      ],
      "name": "addValidator",
      "outputs": [],
      "stateMutability": "nonpayable",
      "type": "function"
    },
    {
      "inputs": [
        {
          "internalType": "enum UserRole",
          "name": "_role",
          "type": "uint8"
        }
      ],
      "name": "createUser",
      "outputs": [],
      "stateMutability": "nonpayable",
      "type": "function"
    },
    {
      "inputs": [
        {
          "internalType": "address",
          "name": "_address",
          "type": "address"
        }
      ],
      "name": "getUser",
      "outputs": [
        {
          "internalType": "enum UserRole",
          "name": "",
          "type": "uint8"
        }
      ],
      "stateMutability": "view",
      "type": "function"
    }
  ],
  "bytecode": "0x60806040526000805534801561001457600080fd5b5033600160006101000a81548173ffffffffffffffffffffffffffffffffffffffff021916908373ffffffffffffffffffffffffffffffffffffffff1602179055506109e4806100656000396000f3fe608060405234801561001057600080fd5b50600436106100415760003560e01c80634d238c8e146100465780634e832026146100625780636f77926b1461007e575b600080fd5b610060600480360381019061005b91906106fb565b6100ae565b005b61007c6004803603810190610077919061074d565b6102db565b005b610098600480360381019061009391906106fb565b610584565b6040516100a591906107f1565b60405180910390f35b600160009054906101000a900473ffffffffffffffffffffffffffffffffffffffff1673ffffffffffffffffffffffffffffffffffffffff163373ffffffffffffffffffffffffffffffffffffffff1614610135576040517fa5f7823e00000000000000000000000000000000000000000000000000000000815260040160405180910390fd5b600060038111156101495761014861077a565b5b600260008373ffffffffffffffffffffffffffffffffffffffff1673ffffffffffffffffffffffffffffffffffffffff16815260200190815260200160002060010160009054906101000a900460ff1660038111156101ab576101aa61077a565b5b146101e2576040517f2ef0883b00000000000000000000000000000000000000000000000000000000815260040160405180910390fd5b604051806040016040528060005481526020016003808111156102085761020761077a565b5b815250600260008373ffffffffffffffffffffffffffffffffffffffff1673ffffffffffffffffffffffffffffffffffffffff1681526020019081526020016000206000820151816000015560208201518160010160006101000a81548160ff0219169083600381111561027f5761027e61077a565b5b021790555090505060008081548092919061029990610845565b91905055507faf4b3638bccab102fac20a754a7ad5e6f32016a07a061dcd113dd76848b189a38160036040516102d092919061089c565b60405180910390a150565b80600160038111156102f0576102ef61077a565b5b60ff168160038111156103065761030561077a565b5b60ff161015801561034157506003808111156103255761032461077a565b5b60ff1681600381111561033b5761033a61077a565b5b60ff1611155b610380576040517f08c379a000000000000000000000000000000000000000000000000000000000815260040161037790610922565b60405180910390fd5b600060038111156103945761039361077a565b5b600260003373ffffffffffffffffffffffffffffffffffffffff1673ffffffffffffffffffffffffffffffffffffffff16815260200190815260200160002060010160009054906101000a900460ff1660038111156103f6576103f561077a565b5b1461042d576040517f2ef0883b00000000000000000000000000000000000000000000000000000000815260040160405180910390fd5b600060038111156104415761044061077a565b5b8260038111156104545761045361077a565b5b0361048b576040517f49282b9700000000000000000000000000000000000000000000000000000000815260040160405180910390fd5b604051806040016040528060005481526020018360038111156104b1576104b061077a565b5b815250600260003373ffffffffffffffffffffffffffffffffffffffff1673ffffffffffffffffffffffffffffffffffffffff1681526020019081526020016000206000820151816000015560208201518160010160006101000a81548160ff021916908360038111156105285761052761077a565b5b021790555090505060008081548092919061054290610845565b91905055507faf4b3638bccab102fac20a754a7ad5e6f32016a07a061dcd113dd76848b189a3338360405161057892919061089c565b60405180910390a15050565b60008060038111156105995761059861077a565b5b600260008473ffffffffffffffffffffffffffffffffffffffff1673ffffffffffffffffffffffffffffffffffffffff16815260200190815260200160002060010160009054906101000a900460ff1660038111156105fb576105fa61077a565b5b0361063b576040517f08c379a00000000000000000000000000000000000000000000000000000000081526004016106329061098e565b60405180910390fd5b6000600260008473ffffffffffffffffffffffffffffffffffffffff1673ffffffffffffffffffffffffffffffffffffffff16815260200190815260200160002090508060010160009054906101000a900460ff16915050919050565b600080fd5b600073ffffffffffffffffffffffffffffffffffffffff82169050919050565b60006106c88261069d565b9050919050565b6106d8816106bd565b81146106e357600080fd5b50565b6000813590506106f5816106cf565b92915050565b60006020828403121561071157610710610698565b5b600061071f848285016106e6565b91505092915050565b6004811061073557600080fd5b50565b60008135905061074781610728565b92915050565b60006020828403121561076357610762610698565b5b600061077184828501610738565b91505092915050565b7f4e487b7100000000000000000000000000000000000000000000000000000000600052602160045260246000fd5b600481106107ba576107b961077a565b5b50565b60008190506107cb826107a9565b919050565b60006107db826107bd565b9050919050565b6107eb816107d0565b82525050565b600060208201905061080660008301846107e2565b92915050565b7f4e487b7100000000000000000000000000000000000000000000000000000000600052601160045260246000fd5b6000819050919050565b60006108508261083b565b91507fffffffffffffffffffffffffffffffffffffffffffffffffffffffffffffffff82036108825761088161080c565b5b600182019050919050565b610896816106bd565b82525050565b60006040820190506108b1600083018561088d565b6108be60208301846107e2565b9392505050565b600082825260208201905092915050565b7f496e76616c696420726f6c650000000000000000000000000000000000000000600082015250565b600061090c600c836108c5565b9150610917826108d6565b602082019050919050565b6000602082019050818103600083015261093b816108ff565b9050919050565b7f5573657220646f6573206e6f7420657869737473000000000000000000000000600082015250565b60006109786014836108c5565b915061098382610942565b602082019050919050565b600060208201905081810360008301526109a78161096b565b905091905056fea2646970667358221220e1578ca263365516e3266099fab54c986ba9c04157e01bf075d9e3a04a85c42e64736f6c63430008180033",
  "linkReferences": {},
  "deployedLinkReferences": {}
}