{
  "_format": "hh-sol-artifact-1",
  "contractName": "ProductValidationContract",
  "sourceName": "contracts/ProductValidationContract.sol",
  "abi": [
    {
      "inputs": [
        {
          "internalType": "address",
          "name": "productRegistrationContractAddress",
          "type": "address"
        }
      ],
      "stateMutability": "nonpayable",
      "type": "constructor"
    },
    {
      "inputs": [
        {
          "internalType": "string",
          "name": "_serialNumber",
          "type": "string"
        }
      ],
      "name": "getProductStatus",
      "outputs": [
        {
          "internalType": "enum ProductStatus",
          "name": "",
          "type": "uint8"
        }
      ],
      "stateMutability": "view",
      "type": "function"
    },
    {
      "inputs": [
        {
          "internalType": "string",
          "name": "_serialNumber",
          "type": "string"
        },
        {
          "internalType": "address",
          "name": "_creator",
          "type": "address"
        }
      ],
      "name": "rejectProduct",
      "outputs": [],
      "stateMutability": "nonpayable",
      "type": "function"
    },
    {
      "inputs": [
        {
          "internalType": "string",
          "name": "_serialNumber",
          "type": "string"
        },
        {
          "internalType": "address",
          "name": "_creator",
          "type": "address"
        }
      ],
      "name": "validateProduct",
      "outputs": [],
      "stateMutability": "nonpayable",
      "type": "function"
    }
  ],
  "bytecode": "0x608060405234801561001057600080fd5b50604051610ac9380380610ac9833981810160405281019061003291906100db565b806000806101000a81548173ffffffffffffffffffffffffffffffffffffffff021916908373ffffffffffffffffffffffffffffffffffffffff16021790555050610108565b600080fd5b600073ffffffffffffffffffffffffffffffffffffffff82169050919050565b60006100a88261007d565b9050919050565b6100b88161009d565b81146100c357600080fd5b50565b6000815190506100d5816100af565b92915050565b6000602082840312156100f1576100f0610078565b5b60006100ff848285016100c6565b91505092915050565b6109b2806101176000396000f3fe608060405234801561001057600080fd5b50600436106100415760003560e01c806348e85204146100465780639f62af0714610062578063cca372a614610092575b600080fd5b610060600480360381019061005b9190610444565b6100ae565b005b61007c600480360381019061007791906104a0565b610142565b6040516100899190610560565b60405180910390f35b6100ac60048036038101906100a79190610444565b6101f8565b005b60008054906101000a900473ffffffffffffffffffffffffffffffffffffffff1673ffffffffffffffffffffffffffffffffffffffff1663925851a2828460026040518463ffffffff1660e01b815260040161010c93929190610609565b600060405180830381600087803b15801561012657600080fd5b505af115801561013a573d6000803e3d6000fd5b505050505050565b60008060008054906101000a900473ffffffffffffffffffffffffffffffffffffffff1673ffffffffffffffffffffffffffffffffffffffff1663cd2f58b8846040518263ffffffff1660e01b815260040161019e9190610647565b600060405180830381865afa1580156101bb573d6000803e3d6000fd5b505050506040513d6000823e3d601f19601f820116820180604052508101906101e49190610811565b509850505050505050505080915050919050565b60008054906101000a900473ffffffffffffffffffffffffffffffffffffffff1673ffffffffffffffffffffffffffffffffffffffff1663925851a2828460036040518463ffffffff1660e01b815260040161025693929190610609565b600060405180830381600087803b15801561027057600080fd5b505af1158015610284573d6000803e3d6000fd5b505050505050565b6000604051905090565b600080fd5b600080fd5b600080fd5b600080fd5b6000601f19601f8301169050919050565b7f4e487b7100000000000000000000000000000000000000000000000000000000600052604160045260246000fd5b6102f3826102aa565b810181811067ffffffffffffffff82111715610312576103116102bb565b5b80604052505050565b600061032561028c565b905061033182826102ea565b919050565b600067ffffffffffffffff821115610351576103506102bb565b5b61035a826102aa565b9050602081019050919050565b82818337600083830152505050565b600061038961038484610336565b61031b565b9050828152602081018484840111156103a5576103a46102a5565b5b6103b0848285610367565b509392505050565b600082601f8301126103cd576103cc6102a0565b5b81356103dd848260208601610376565b91505092915050565b600073ffffffffffffffffffffffffffffffffffffffff82169050919050565b6000610411826103e6565b9050919050565b61042181610406565b811461042c57600080fd5b50565b60008135905061043e81610418565b92915050565b6000806040838503121561045b5761045a610296565b5b600083013567ffffffffffffffff8111156104795761047861029b565b5b610485858286016103b8565b92505060206104968582860161042f565b9150509250929050565b6000602082840312156104b6576104b5610296565b5b600082013567ffffffffffffffff8111156104d4576104d361029b565b5b6104e0848285016103b8565b91505092915050565b7f4e487b7100000000000000000000000000000000000000000000000000000000600052602160045260246000fd5b60048110610529576105286104e9565b5b50565b600081905061053a82610518565b919050565b600061054a8261052c565b9050919050565b61055a8161053f565b82525050565b60006020820190506105756000830184610551565b92915050565b61058481610406565b82525050565b600081519050919050565b600082825260208201905092915050565b60005b838110156105c45780820151818401526020810190506105a9565b60008484015250505050565b60006105db8261058a565b6105e58185610595565b93506105f58185602086016105a6565b6105fe816102aa565b840191505092915050565b600060608201905061061e600083018661057b565b818103602083015261063081856105d0565b905061063f6040830184610551565b949350505050565b6000602082019050818103600083015261066181846105d0565b905092915050565b600061067c61067784610336565b61031b565b905082815260208101848484011115610698576106976102a5565b5b6106a38482856105a6565b509392505050565b600082601f8301126106c0576106bf6102a0565b5b81516106d0848260208601610669565b91505092915050565b6000819050919050565b6106ec816106d9565b81146106f757600080fd5b50565b600081519050610709816106e3565b92915050565b60008151905061071e81610418565b92915050565b6004811061073157600080fd5b50565b60008151905061074381610724565b92915050565b600067ffffffffffffffff821115610764576107636102bb565b5b602082029050602081019050919050565b600080fd5b600061078d61078884610749565b61031b565b905080838252602082019050602084028301858111156107b0576107af610775565b5b835b818110156107d957806107c5888261070f565b8452602084019350506020810190506107b2565b5050509392505050565b600082601f8301126107f8576107f76102a0565b5b815161080884826020860161077a565b91505092915050565b6000806000806000806000806000806101408b8d03121561083557610834610296565b5b60008b015167ffffffffffffffff8111156108535761085261029b565b5b61085f8d828e016106ab565b9a505060208b015167ffffffffffffffff8111156108805761087f61029b565b5b61088c8d828e016106ab565b99505060408b015167ffffffffffffffff8111156108ad576108ac61029b565b5b6108b98d828e016106ab565b98505060608b015167ffffffffffffffff8111156108da576108d961029b565b5b6108e68d828e016106ab565b97505060806108f78d828e016106fa565b96505060a06109088d828e016106fa565b95505060c06109198d828e0161070f565b94505060e061092a8d828e0161070f565b93505061010061093c8d828e01610734565b9250506101208b015167ffffffffffffffff81111561095e5761095d61029b565b5b61096a8d828e016107e3565b9150509295989b9194979a509295985056fea26469706673582212201796be5bac3209cb8937f0079a06ed86a6e4b87a2c08fdf4ae42627e8cf5d69664736f6c63430008180033",
  "linkReferences": {},
  "deployedLinkReferences": {}
}