{
  "_format": "hh-sol-artifact-1",
  "contractName": "OwnershipTransferContract",
  "sourceName": "contracts/OwnershipTransferContract.sol",
  "abi": [
    {
      "inputs": [
        {
          "internalType": "address",
          "name": "productRegistrationContractAddress",
          "type": "address"
        }
      ],
      "stateMutability": "nonpayable",
      "type": "constructor"
    },
    {
      "inputs": [
        {
          "internalType": "string",
          "name": "_serialNumber",
          "type": "string"
        }
      ],
      "name": "getProductOwners",
      "outputs": [
        {
          "internalType": "address[]",
          "name": "",
          "type": "address[]"
        }
      ],
      "stateMutability": "view",
      "type": "function"
    },
    {
      "inputs": [
        {
          "internalType": "string",
          "name": "_serialNumber",
          "type": "string"
        },
        {
          "internalType": "address",
          "name": "_newOwner",
          "type": "address"
        }
      ],
      "name": "transferProduct",
      "outputs": [],
      "stateMutability": "nonpayable",
      "type": "function"
    }
  ],
  "bytecode": "0x608060405234801561001057600080fd5b50604051610a5d380380610a5d833981810160405281019061003291906100db565b806000806101000a81548173ffffffffffffffffffffffffffffffffffffffff021916908373ffffffffffffffffffffffffffffffffffffffff16021790555050610108565b600080fd5b600073ffffffffffffffffffffffffffffffffffffffff82169050919050565b60006100a88261007d565b9050919050565b6100b88161009d565b81146100c357600080fd5b50565b6000815190506100d5816100af565b92915050565b6000602082840312156100f1576100f0610078565b5b60006100ff848285016100c6565b91505092915050565b610946806101176000396000f3fe608060405234801561001057600080fd5b50600436106100365760003560e01c806390afcb9d1461003b578063f226430b14610057575b600080fd5b6100556004803603810190610050919061038a565b610087565b005b610071600480360381019061006c91906103e6565b61011a565b60405161007e91906104ed565b60405180910390f35b60008054906101000a900473ffffffffffffffffffffffffffffffffffffffff1673ffffffffffffffffffffffffffffffffffffffff16638b96c99c8333846040518463ffffffff1660e01b81526004016100e49392919061059d565b600060405180830381600087803b1580156100fe57600080fd5b505af1158015610112573d6000803e3d6000fd5b505050505050565b606060008060009054906101000a900473ffffffffffffffffffffffffffffffffffffffff1673ffffffffffffffffffffffffffffffffffffffff1663cd2f58b8846040518263ffffffff1660e01b815260040161017891906105db565b600060405180830381865afa158015610195573d6000803e3d6000fd5b505050506040513d6000823e3d601f19601f820116820180604052508101906101be91906107a5565b995050505050505050505080915050919050565b6000604051905090565b600080fd5b600080fd5b600080fd5b600080fd5b6000601f19601f8301169050919050565b7f4e487b7100000000000000000000000000000000000000000000000000000000600052604160045260246000fd5b610239826101f0565b810181811067ffffffffffffffff8211171561025857610257610201565b5b80604052505050565b600061026b6101d2565b90506102778282610230565b919050565b600067ffffffffffffffff82111561029757610296610201565b5b6102a0826101f0565b9050602081019050919050565b82818337600083830152505050565b60006102cf6102ca8461027c565b610261565b9050828152602081018484840111156102eb576102ea6101eb565b5b6102f68482856102ad565b509392505050565b600082601f830112610313576103126101e6565b5b81356103238482602086016102bc565b91505092915050565b600073ffffffffffffffffffffffffffffffffffffffff82169050919050565b60006103578261032c565b9050919050565b6103678161034c565b811461037257600080fd5b50565b6000813590506103848161035e565b92915050565b600080604083850312156103a1576103a06101dc565b5b600083013567ffffffffffffffff8111156103bf576103be6101e1565b5b6103cb858286016102fe565b92505060206103dc85828601610375565b9150509250929050565b6000602082840312156103fc576103fb6101dc565b5b600082013567ffffffffffffffff81111561041a576104196101e1565b5b610426848285016102fe565b91505092915050565b600081519050919050565b600082825260208201905092915050565b6000819050602082019050919050565b6104648161034c565b82525050565b6000610476838361045b565b60208301905092915050565b6000602082019050919050565b600061049a8261042f565b6104a4818561043a565b93506104af8361044b565b8060005b838110156104e05781516104c7888261046a565b97506104d283610482565b9250506001810190506104b3565b5085935050505092915050565b60006020820190508181036000830152610507818461048f565b905092915050565b600081519050919050565b600082825260208201905092915050565b60005b8381101561054957808201518184015260208101905061052e565b60008484015250505050565b60006105608261050f565b61056a818561051a565b935061057a81856020860161052b565b610583816101f0565b840191505092915050565b6105978161034c565b82525050565b600060608201905081810360008301526105b78186610555565b90506105c6602083018561058e565b6105d3604083018461058e565b949350505050565b600060208201905081810360008301526105f58184610555565b905092915050565b600061061061060b8461027c565b610261565b90508281526020810184848401111561062c5761062b6101eb565b5b61063784828561052b565b509392505050565b600082601f830112610654576106536101e6565b5b81516106648482602086016105fd565b91505092915050565b6000819050919050565b6106808161066d565b811461068b57600080fd5b50565b60008151905061069d81610677565b92915050565b6000815190506106b28161035e565b92915050565b600481106106c557600080fd5b50565b6000815190506106d7816106b8565b92915050565b600067ffffffffffffffff8211156106f8576106f7610201565b5b602082029050602081019050919050565b600080fd5b600061072161071c846106dd565b610261565b9050808382526020820190506020840283018581111561074457610743610709565b5b835b8181101561076d578061075988826106a3565b845260208401935050602081019050610746565b5050509392505050565b600082601f83011261078c5761078b6101e6565b5b815161079c84826020860161070e565b91505092915050565b6000806000806000806000806000806101408b8d0312156107c9576107c86101dc565b5b60008b015167ffffffffffffffff8111156107e7576107e66101e1565b5b6107f38d828e0161063f565b9a505060208b015167ffffffffffffffff811115610814576108136101e1565b5b6108208d828e0161063f565b99505060408b015167ffffffffffffffff811115610841576108406101e1565b5b61084d8d828e0161063f565b98505060608b015167ffffffffffffffff81111561086e5761086d6101e1565b5b61087a8d828e0161063f565b975050608061088b8d828e0161068e565b96505060a061089c8d828e0161068e565b95505060c06108ad8d828e016106a3565b94505060e06108be8d828e016106a3565b9350506101006108d08d828e016106c8565b9250506101208b015167ffffffffffffffff8111156108f2576108f16101e1565b5b6108fe8d828e01610777565b9150509295989b9194979a509295985056fea26469706673582212203f3c3596b3854f4d67cad0b0c3558a8c369fafdbd798a42fe981d815732dc4b864736f6c63430008180033",
  "linkReferences": {},
  "deployedLinkReferences": {}
}