{
  "_format": "hh-sol-artifact-1",
  "contractName": "OwnershipTransferContract",
  "sourceName": "contracts/OwnershipTransferContract.sol",
  "abi": [
    {
      "inputs": [
        {
          "internalType": "address",
          "name": "productRegistrationContractAddress",
          "type": "address"
        }
      ],
      "stateMutability": "nonpayable",
      "type": "constructor"
    },
    {
      "inputs": [
        {
          "internalType": "string",
          "name": "_serialNumber",
          "type": "string"
        }
      ],
      "name": "getProductOwners",
      "outputs": [
        {
          "internalType": "address[]",
          "name": "",
          "type": "address[]"
        }
      ],
      "stateMutability": "view",
      "type": "function"
    },
    {
      "inputs": [
        {
          "internalType": "string",
          "name": "_serialNumber",
          "type": "string"
        },
        {
          "internalType": "address",
          "name": "_newOwner",
          "type": "address"
        }
      ],
      "name": "transferProduct",
      "outputs": [],
      "stateMutability": "nonpayable",
      "type": "function"
    }
  ],
  "bytecode": "0x608060405234801561001057600080fd5b50604051610a4d380380610a4d833981810160405281019061003291906100db565b806000806101000a81548173ffffffffffffffffffffffffffffffffffffffff021916908373ffffffffffffffffffffffffffffffffffffffff16021790555050610108565b600080fd5b600073ffffffffffffffffffffffffffffffffffffffff82169050919050565b60006100a88261007d565b9050919050565b6100b88161009d565b81146100c357600080fd5b50565b6000815190506100d5816100af565b92915050565b6000602082840312156100f1576100f0610078565b5b60006100ff848285016100c6565b91505092915050565b610936806101176000396000f3fe608060405234801561001057600080fd5b50600436106100365760003560e01c806390afcb9d1461003b578063f226430b14610057575b600080fd5b61005560048036038101906100509190610388565b610087565b005b610071600480360381019061006c91906103e4565b610118565b60405161007e91906104eb565b60405180910390f35b60008054906101000a900473ffffffffffffffffffffffffffffffffffffffff1673ffffffffffffffffffffffffffffffffffffffff166390afcb9d83836040518363ffffffff1660e01b81526004016100e292919061059b565b600060405180830381600087803b1580156100fc57600080fd5b505af1158015610110573d6000803e3d6000fd5b505050505050565b606060008060009054906101000a900473ffffffffffffffffffffffffffffffffffffffff1673ffffffffffffffffffffffffffffffffffffffff1663cd2f58b8846040518263ffffffff1660e01b815260040161017691906105cb565b600060405180830381865afa158015610193573d6000803e3d6000fd5b505050506040513d6000823e3d601f19601f820116820180604052508101906101bc9190610795565b995050505050505050505080915050919050565b6000604051905090565b600080fd5b600080fd5b600080fd5b600080fd5b6000601f19601f8301169050919050565b7f4e487b7100000000000000000000000000000000000000000000000000000000600052604160045260246000fd5b610237826101ee565b810181811067ffffffffffffffff82111715610256576102556101ff565b5b80604052505050565b60006102696101d0565b9050610275828261022e565b919050565b600067ffffffffffffffff821115610295576102946101ff565b5b61029e826101ee565b9050602081019050919050565b82818337600083830152505050565b60006102cd6102c88461027a565b61025f565b9050828152602081018484840111156102e9576102e86101e9565b5b6102f48482856102ab565b509392505050565b600082601f830112610311576103106101e4565b5b81356103218482602086016102ba565b91505092915050565b600073ffffffffffffffffffffffffffffffffffffffff82169050919050565b60006103558261032a565b9050919050565b6103658161034a565b811461037057600080fd5b50565b6000813590506103828161035c565b92915050565b6000806040838503121561039f5761039e6101da565b5b600083013567ffffffffffffffff8111156103bd576103bc6101df565b5b6103c9858286016102fc565b92505060206103da85828601610373565b9150509250929050565b6000602082840312156103fa576103f96101da565b5b600082013567ffffffffffffffff811115610418576104176101df565b5b610424848285016102fc565b91505092915050565b600081519050919050565b600082825260208201905092915050565b6000819050602082019050919050565b6104628161034a565b82525050565b60006104748383610459565b60208301905092915050565b6000602082019050919050565b60006104988261042d565b6104a28185610438565b93506104ad83610449565b8060005b838110156104de5781516104c58882610468565b97506104d083610480565b9250506001810190506104b1565b5085935050505092915050565b60006020820190508181036000830152610505818461048d565b905092915050565b600081519050919050565b600082825260208201905092915050565b60005b8381101561054757808201518184015260208101905061052c565b60008484015250505050565b600061055e8261050d565b6105688185610518565b9350610578818560208601610529565b610581816101ee565b840191505092915050565b6105958161034a565b82525050565b600060408201905081810360008301526105b58185610553565b90506105c4602083018461058c565b9392505050565b600060208201905081810360008301526105e58184610553565b905092915050565b60006106006105fb8461027a565b61025f565b90508281526020810184848401111561061c5761061b6101e9565b5b610627848285610529565b509392505050565b600082601f830112610644576106436101e4565b5b81516106548482602086016105ed565b91505092915050565b6000819050919050565b6106708161065d565b811461067b57600080fd5b50565b60008151905061068d81610667565b92915050565b6000815190506106a28161035c565b92915050565b600481106106b557600080fd5b50565b6000815190506106c7816106a8565b92915050565b600067ffffffffffffffff8211156106e8576106e76101ff565b5b602082029050602081019050919050565b600080fd5b600061071161070c846106cd565b61025f565b90508083825260208201905060208402830185811115610734576107336106f9565b5b835b8181101561075d57806107498882610693565b845260208401935050602081019050610736565b5050509392505050565b600082601f83011261077c5761077b6101e4565b5b815161078c8482602086016106fe565b91505092915050565b6000806000806000806000806000806101408b8d0312156107b9576107b86101da565b5b60008b015167ffffffffffffffff8111156107d7576107d66101df565b5b6107e38d828e0161062f565b9a505060208b015167ffffffffffffffff811115610804576108036101df565b5b6108108d828e0161062f565b99505060408b015167ffffffffffffffff811115610831576108306101df565b5b61083d8d828e0161062f565b98505060608b015167ffffffffffffffff81111561085e5761085d6101df565b5b61086a8d828e0161062f565b975050608061087b8d828e0161067e565b96505060a061088c8d828e0161067e565b95505060c061089d8d828e01610693565b94505060e06108ae8d828e01610693565b9350506101006108c08d828e016106b8565b9250506101208b015167ffffffffffffffff8111156108e2576108e16101df565b5b6108ee8d828e01610767565b9150509295989b9194979a509295985056fea26469706673582212202ee6d47c59718cbe9d1a554b3ce355b4be3a72a5a59322b40b62b2aa39750b3f64736f6c63430008180033",
  "linkReferences": {},
  "deployedLinkReferences": {}
}