{
  "_format": "hh-sol-artifact-1",
  "contractName": "ProductRegistrationContract",
  "sourceName": "contracts/ProductRegistrationContract.sol",
  "abi": [
    {
      "inputs": [],
      "stateMutability": "nonpayable",
      "type": "constructor"
    },
    {
      "inputs": [],
      "name": "AccessControlBadConfirmation",
      "type": "error"
    },
    {
      "inputs": [
        {
          "internalType": "address",
          "name": "account",
          "type": "address"
        },
        {
          "internalType": "bytes32",
          "name": "neededRole",
          "type": "bytes32"
        }
      ],
      "name": "AccessControlUnauthorizedAccount",
      "type": "error"
    },
    {
      "inputs": [],
      "name": "InvalidReportIndex",
      "type": "error"
    },
    {
      "inputs": [],
      "name": "onlyAdmin",
      "type": "error"
    },
    {
      "inputs": [],
      "name": "onlyValidator",
      "type": "error"
    },
    {
      "inputs": [],
      "name": "productAlreadyExists",
      "type": "error"
    },
    {
      "inputs": [],
      "name": "productAlreadyValidated",
      "type": "error"
    },
    {
      "anonymous": false,
      "inputs": [
        {
          "indexed": true,
          "internalType": "string",
          "name": "serialNumber",
          "type": "string"
        },
        {
          "indexed": false,
          "internalType": "string",
          "name": "message",
          "type": "string"
        }
      ],
      "name": "AlertIssued",
      "type": "event"
    },
    {
      "anonymous": false,
      "inputs": [
        {
          "indexed": true,
          "internalType": "string",
          "name": "serialNumber",
          "type": "string"
        },
        {
          "indexed": true,
          "internalType": "address",
          "name": "reporter",
          "type": "address"
        },
        {
          "indexed": false,
          "internalType": "string",
          "name": "details",
          "type": "string"
        }
      ],
      "name": "CounterfeitReported",
      "type": "event"
    },
    {
      "anonymous": false,
      "inputs": [
        {
          "indexed": false,
          "internalType": "string",
          "name": "serialNumber",
          "type": "string"
        },
        {
          "indexed": false,
          "internalType": "string",
          "name": "name",
          "type": "string"
        },
        {
          "indexed": false,
          "internalType": "string",
          "name": "description",
          "type": "string"
        },
        {
          "indexed": false,
          "internalType": "string",
          "name": "picture",
          "type": "string"
        },
        {
          "indexed": false,
          "internalType": "uint256",
          "name": "price",
          "type": "uint256"
        },
        {
          "indexed": false,
          "internalType": "uint256",
          "name": "registrationDate",
          "type": "uint256"
        },
        {
          "indexed": false,
          "internalType": "address",
          "name": "manufacter",
          "type": "address"
        },
        {
          "indexed": false,
          "internalType": "address",
          "name": "owner",
          "type": "address"
        },
        {
          "indexed": false,
          "internalType": "enum ProductStatus",
          "name": "status",
          "type": "uint8"
        },
        {
          "indexed": false,
          "internalType": "address[]",
          "name": "owners",
          "type": "address[]"
        }
      ],
      "name": "NewProductAdded",
      "type": "event"
    },
    {
      "anonymous": false,
      "inputs": [
        {
          "indexed": false,
          "internalType": "enum ProductStatus",
          "name": "status",
          "type": "uint8"
        },
        {
          "indexed": false,
          "internalType": "string",
          "name": "message",
          "type": "string"
        }
      ],
      "name": "ProductSatusChanged",
      "type": "event"
    },
    {
      "anonymous": false,
      "inputs": [
        {
          "indexed": false,
          "internalType": "string",
          "name": "serialNumber",
          "type": "string"
        },
        {
          "indexed": false,
          "internalType": "string",
          "name": "name",
          "type": "string"
        },
        {
          "indexed": false,
          "internalType": "string",
          "name": "description",
          "type": "string"
        },
        {
          "indexed": false,
          "internalType": "uint256",
          "name": "price",
          "type": "uint256"
        }
      ],
      "name": "ProductUpdated",
      "type": "event"
    },
    {
      "anonymous": false,
      "inputs": [
        {
          "indexed": true,
          "internalType": "string",
          "name": "serialNumber",
          "type": "string"
        },
        {
          "indexed": false,
          "internalType": "uint256",
          "name": "reportIndex",
          "type": "uint256"
        }
      ],
      "name": "ReportResolved",
      "type": "event"
    },
    {
      "anonymous": false,
      "inputs": [
        {
          "indexed": true,
          "internalType": "bytes32",
          "name": "role",
          "type": "bytes32"
        },
        {
          "indexed": true,
          "internalType": "bytes32",
          "name": "previousAdminRole",
          "type": "bytes32"
        },
        {
          "indexed": true,
          "internalType": "bytes32",
          "name": "newAdminRole",
          "type": "bytes32"
        }
      ],
      "name": "RoleAdminChanged",
      "type": "event"
    },
    {
      "anonymous": false,
      "inputs": [
        {
          "indexed": true,
          "internalType": "bytes32",
          "name": "role",
          "type": "bytes32"
        },
        {
          "indexed": true,
          "internalType": "address",
          "name": "account",
          "type": "address"
        },
        {
          "indexed": true,
          "internalType": "address",
          "name": "sender",
          "type": "address"
        }
      ],
      "name": "RoleGranted",
      "type": "event"
    },
    {
      "anonymous": false,
      "inputs": [
        {
          "indexed": true,
          "internalType": "bytes32",
          "name": "role",
          "type": "bytes32"
        },
        {
          "indexed": true,
          "internalType": "address",
          "name": "account",
          "type": "address"
        },
        {
          "indexed": true,
          "internalType": "address",
          "name": "sender",
          "type": "address"
        }
      ],
      "name": "RoleRevoked",
      "type": "event"
    },
    {
      "inputs": [],
      "name": "DEFAULT_ADMIN_ROLE",
      "outputs": [
        {
          "internalType": "bytes32",
          "name": "",
          "type": "bytes32"
        }
      ],
      "stateMutability": "view",
      "type": "function"
    },
    {
      "inputs": [
        {
          "internalType": "address",
          "name": "_manufacturer",
          "type": "address"
        }
      ],
      "name": "addManufacturer",
      "outputs": [],
      "stateMutability": "nonpayable",
      "type": "function"
    },
    {
      "inputs": [
        {
          "internalType": "string",
          "name": "_serialNumber",
          "type": "string"
        },
        {
          "internalType": "string",
          "name": "_name",
          "type": "string"
        },
        {
          "internalType": "string",
          "name": "_description",
          "type": "string"
        },
        {
          "internalType": "string",
          "name": "_picture",
          "type": "string"
        },
        {
          "internalType": "uint256",
          "name": "_price",
          "type": "uint256"
        }
      ],
      "name": "addProduct",
      "outputs": [],
      "stateMutability": "nonpayable",
      "type": "function"
    },
    {
      "inputs": [
        {
          "internalType": "address",
          "name": "_manufacturer",
          "type": "address"
        }
      ],
      "name": "addValidator",
      "outputs": [],
      "stateMutability": "nonpayable",
      "type": "function"
    },
    {
      "inputs": [
        {
          "internalType": "string",
          "name": "_serialNumber",
          "type": "string"
        },
        {
          "internalType": "address",
          "name": "_owner",
          "type": "address"
        }
      ],
      "name": "appendOwnerToProductOwners",
      "outputs": [],
      "stateMutability": "nonpayable",
      "type": "function"
    },
    {
      "inputs": [
        {
          "internalType": "string",
          "name": "_serialNumber",
          "type": "string"
        },
        {
          "internalType": "enum ProductStatus",
          "name": "_status",
          "type": "uint8"
        }
      ],
      "name": "approveOrRejectProduct",
      "outputs": [],
      "stateMutability": "nonpayable",
      "type": "function"
    },
    {
      "inputs": [],
      "name": "counterfeitReportedAddress",
      "outputs": [
        {
          "internalType": "address",
          "name": "",
          "type": "address"
        }
      ],
      "stateMutability": "view",
      "type": "function"
    },
    {
      "inputs": [
        {
          "internalType": "string",
          "name": "_serialNumber",
          "type": "string"
        }
      ],
      "name": "getReports",
      "outputs": [
        {
          "components": [
            {
              "internalType": "string",
              "name": "serialNumber",
              "type": "string"
            },
            {
              "internalType": "address",
              "name": "reporter",
              "type": "address"
            },
            {
              "internalType": "string",
              "name": "details",
              "type": "string"
            },
            {
              "internalType": "uint256",
              "name": "reportDate",
              "type": "uint256"
            }
          ],
          "internalType": "struct Report[]",
          "name": "",
          "type": "tuple[]"
        }
      ],
      "stateMutability": "view",
      "type": "function"
    },
    {
      "inputs": [
        {
          "internalType": "bytes32",
          "name": "role",
          "type": "bytes32"
        }
      ],
      "name": "getRoleAdmin",
      "outputs": [
        {
          "internalType": "bytes32",
          "name": "",
          "type": "bytes32"
        }
      ],
      "stateMutability": "view",
      "type": "function"
    },
    {
      "inputs": [
        {
          "internalType": "bytes32",
          "name": "role",
          "type": "bytes32"
        },
        {
          "internalType": "address",
          "name": "account",
          "type": "address"
        }
      ],
      "name": "grantRole",
      "outputs": [],
      "stateMutability": "nonpayable",
      "type": "function"
    },
    {
      "inputs": [
        {
          "internalType": "bytes32",
          "name": "role",
          "type": "bytes32"
        },
        {
          "internalType": "address",
          "name": "account",
          "type": "address"
        }
      ],
      "name": "hasRole",
      "outputs": [
        {
          "internalType": "bool",
          "name": "",
          "type": "bool"
        }
      ],
      "stateMutability": "view",
      "type": "function"
    },
    {
      "inputs": [],
      "name": "ownershipTransferContract",
      "outputs": [
        {
          "internalType": "address",
          "name": "",
          "type": "address"
        }
      ],
      "stateMutability": "view",
      "type": "function"
    },
    {
      "inputs": [],
      "name": "productValidationAddress",
      "outputs": [
        {
          "internalType": "address",
          "name": "",
          "type": "address"
        }
      ],
      "stateMutability": "view",
      "type": "function"
    },
    {
      "inputs": [
        {
          "internalType": "bytes32",
          "name": "role",
          "type": "bytes32"
        },
        {
          "internalType": "address",
          "name": "callerConfirmation",
          "type": "address"
        }
      ],
      "name": "renounceRole",
      "outputs": [],
      "stateMutability": "nonpayable",
      "type": "function"
    },
    {
      "inputs": [
        {
          "internalType": "string",
          "name": "_serialNumber",
          "type": "string"
        },
        {
          "internalType": "string",
          "name": "_details",
          "type": "string"
        }
      ],
      "name": "reportProduct",
      "outputs": [],
      "stateMutability": "nonpayable",
      "type": "function"
    },
    {
      "inputs": [
        {
          "internalType": "string",
          "name": "_serialNumber",
          "type": "string"
        },
        {
          "internalType": "uint256",
          "name": "reportIndex",
          "type": "uint256"
        }
      ],
      "name": "resolveReport",
      "outputs": [],
      "stateMutability": "nonpayable",
      "type": "function"
    },
    {
      "inputs": [
        {
          "internalType": "bytes32",
          "name": "role",
          "type": "bytes32"
        },
        {
          "internalType": "address",
          "name": "account",
          "type": "address"
        }
      ],
      "name": "revokeRole",
      "outputs": [],
      "stateMutability": "nonpayable",
      "type": "function"
    },
    {
      "inputs": [],
      "name": "s_alertThreshold",
      "outputs": [
        {
          "internalType": "uint256",
          "name": "",
          "type": "uint256"
        }
      ],
      "stateMutability": "view",
      "type": "function"
    },
    {
      "inputs": [
        {
          "internalType": "string",
          "name": "",
          "type": "string"
        },
        {
          "internalType": "uint256",
          "name": "",
          "type": "uint256"
        }
      ],
      "name": "s_counterfeitReports",
      "outputs": [
        {
          "internalType": "string",
          "name": "serialNumber",
          "type": "string"
        },
        {
          "internalType": "address",
          "name": "reporter",
          "type": "address"
        },
        {
          "internalType": "string",
          "name": "details",
          "type": "string"
        },
        {
          "internalType": "uint256",
          "name": "reportDate",
          "type": "uint256"
        }
      ],
      "stateMutability": "view",
      "type": "function"
    },
    {
      "inputs": [
        {
          "internalType": "string",
          "name": "_serialNumber",
          "type": "string"
        }
      ],
      "name": "showProductInfos",
      "outputs": [
        {
          "internalType": "string",
          "name": "",
          "type": "string"
        },
        {
          "internalType": "string",
          "name": "",
          "type": "string"
        },
        {
          "internalType": "string",
          "name": "",
          "type": "string"
        },
        {
          "internalType": "string",
          "name": "",
          "type": "string"
        },
        {
          "internalType": "uint256",
          "name": "",
          "type": "uint256"
        },
        {
          "internalType": "uint256",
          "name": "",
          "type": "uint256"
        },
        {
          "internalType": "address",
          "name": "",
          "type": "address"
        },
        {
          "internalType": "address",
          "name": "",
          "type": "address"
        },
        {
          "internalType": "enum ProductStatus",
          "name": "",
          "type": "uint8"
        },
        {
          "internalType": "address[]",
          "name": "",
          "type": "address[]"
        }
      ],
      "stateMutability": "view",
      "type": "function"
    },
    {
      "inputs": [
        {
          "internalType": "bytes4",
          "name": "interfaceId",
          "type": "bytes4"
        }
      ],
      "name": "supportsInterface",
      "outputs": [
        {
          "internalType": "bool",
          "name": "",
          "type": "bool"
        }
      ],
      "stateMutability": "view",
      "type": "function"
    },
    {
      "inputs": [
        {
          "internalType": "string",
          "name": "_serialNumber",
          "type": "string"
        },
        {
          "internalType": "address",
          "name": "_currentOwner",
          "type": "address"
        },
        {
          "internalType": "address",
          "name": "_newOwner",
          "type": "address"
        }
      ],
      "name": "transferProduct",
      "outputs": [],
      "stateMutability": "nonpayable",
      "type": "function"
    },
    {
      "inputs": [
        {
          "internalType": "string",
          "name": "_serialNumber",
          "type": "string"
        },
        {
          "internalType": "string",
          "name": "_name",
          "type": "string"
        },
        {
          "internalType": "string",
          "name": "_description",
          "type": "string"
        },
        {
          "internalType": "uint256",
          "name": "_price",
          "type": "uint256"
        }
      ],
      "name": "updateProduct",
      "outputs": [],
      "stateMutability": "nonpayable",
      "type": "function"
    }
  ],
  "bytecode": "0x60806040527f21702c8af46127c7fa207f89d0b0a8441bb32959a0ac7df790e9ab1a25c989266001557feefb95e842a3287179d933b4460be539a1d5af11aa8b325bb45c5c8dc92de4ed6002556000600360006101000a81548160ff021916908360ff16021790555060036004553480156200007a57600080fd5b50620000906000801b336200009760201b60201c565b506200020c565b6000620000ab83836200019a60201b60201c565b6200018f57600160008085815260200190815260200160002060000160008473ffffffffffffffffffffffffffffffffffffffff1673ffffffffffffffffffffffffffffffffffffffff16815260200190815260200160002060006101000a81548160ff0219169083151502179055506200012b6200020460201b60201c565b73ffffffffffffffffffffffffffffffffffffffff168273ffffffffffffffffffffffffffffffffffffffff16847f2f8788117e7eff1d82e926ec794901d17c78024a50270940304540a733656f0d60405160405180910390a46001905062000194565b600090505b92915050565b600080600084815260200190815260200160002060000160008373ffffffffffffffffffffffffffffffffffffffff1673ffffffffffffffffffffffffffffffffffffffff16815260200190815260200160002060009054906101000a900460ff16905092915050565b600033905090565b613c60806200021c6000396000f3fe608060405234801561001057600080fd5b506004361061014d5760003560e01c80636b4d2a74116100c35780639ed766801161007c5780639ed766801461039b578063a217fddf146103b7578063cd2f58b8146103d5578063d547741f1461040e578063f0a9cdac1461042a578063fa70007f146104465761014d565b80636b4d2a74146102c257806378cc5a36146102e05780638755f1e2146103135780638b96c99c1461033157806391d148541461034d5780639ba71a3f1461037d5761014d565b80632f2ff15d116101155780632f2ff15d1461021a57806336568abe146102365780634d238c8e1461025257806354833e101461026e5780635abdd44f1461028a5780635f8a5afa146102a65761014d565b806301ffc9a7146101525780631a68638a14610182578063248a9ca3146101b257806325dfbfba146101e25780632bccd42b146101fe575b600080fd5b61016c600480360381019061016791906126df565b610464565b6040516101799190612727565b60405180910390f35b61019c60048036038101906101979190612888565b6104de565b6040516101a99190612ad6565b60405180910390f35b6101cc60048036038101906101c79190612b2e565b61076f565b6040516101d99190612b6a565b60405180910390f35b6101fc60048036038101906101f79190612bb1565b61078e565b005b61021860048036038101906102139190612c9c565b610b43565b005b610234600480360381019061022f9190612d83565b610d9c565b005b610250600480360381019061024b9190612d83565b610dbe565b005b61026c60048036038101906102679190612dc3565b610e39565b005b61028860048036038101906102839190612df0565b610e94565b005b6102a4600480360381019061029f9190612e4c565b610fb7565b005b6102c060048036038101906102bb9190612dc3565b611343565b005b6102ca61139e565b6040516102d79190612ed3565b60405180910390f35b6102fa60048036038101906102f59190612eee565b6113a4565b60405161030a9493929190612fa3565b60405180910390f35b61031b611537565b6040516103289190612ff6565b60405180910390f35b61034b60048036038101906103469190613011565b61155d565b005b61036760048036038101906103629190612d83565b61185e565b6040516103749190612727565b60405180910390f35b6103856118c8565b6040516103929190612ff6565b60405180910390f35b6103b560048036038101906103b09190612eee565b6118ee565b005b6103bf611ab9565b6040516103cc9190612b6a565b60405180910390f35b6103ef60048036038101906103ea9190612888565b611ac0565b6040516104059a999897969594939291906131a6565b60405180910390f35b61042860048036038101906104239190612d83565b611fbc565b005b610444600480360381019061043f919061328a565b611fde565b005b61044e6122ac565b60405161045b9190612ff6565b60405180910390f35b60007f7965db0b000000000000000000000000000000000000000000000000000000007bffffffffffffffffffffffffffffffffffffffffffffffffffffffff1916827bffffffffffffffffffffffffffffffffffffffffffffffffffffffff191614806104d757506104d6826122d2565b5b9050919050565b6060600760009054906101000a900473ffffffffffffffffffffffffffffffffffffffff1673ffffffffffffffffffffffffffffffffffffffff163373ffffffffffffffffffffffffffffffffffffffff1614610570576040517f08c379a000000000000000000000000000000000000000000000000000000000815260040161056790613332565b60405180910390fd5b600682604051610580919061338e565b9081526020016040518091039020805480602002602001604051908101604052809291908181526020016000905b8282101561076457838290600052602060002090600402016040518060800160405290816000820180546105e1906133d4565b80601f016020809104026020016040519081016040528092919081815260200182805461060d906133d4565b801561065a5780601f1061062f5761010080835404028352916020019161065a565b820191906000526020600020905b81548152906001019060200180831161063d57829003601f168201915b505050505081526020016001820160009054906101000a900473ffffffffffffffffffffffffffffffffffffffff1673ffffffffffffffffffffffffffffffffffffffff1673ffffffffffffffffffffffffffffffffffffffff1681526020016002820180546106c9906133d4565b80601f01602080910402602001604051908101604052809291908181526020018280546106f5906133d4565b80156107425780601f1061071757610100808354040283529160200191610742565b820191906000526020600020905b81548152906001019060200180831161072557829003601f168201915b50505050508152602001600382015481525050815260200190600101906105ae565b505050509050919050565b6000806000838152602001908152602001600020600101549050919050565b61079a6002543361185e565b6107a357600080fd5b600060038111156107b7576107b6613080565b5b6005866040516107c7919061338e565b908152602001604051809103902060070160149054906101000a900460ff1660038111156107f8576107f7613080565b5b1461082f576040517fe66a8a2800000000000000000000000000000000000000000000000000000000815260040160405180910390fd5b6040518061014001604052808681526020018581526020018481526020018381526020018281526020014281526020013373ffffffffffffffffffffffffffffffffffffffff1681526020013373ffffffffffffffffffffffffffffffffffffffff168152602001600160038111156108ab576108aa613080565b5b8152602001600067ffffffffffffffff8111156108cb576108ca61275d565b5b6040519080825280602002602001820160405280156108f95781602001602082028036833780820191505090505b5081525060058660405161090d919061338e565b9081526020016040518091039020600082015181600001908161093091906135b1565b50602082015181600101908161094691906135b1565b50604082015181600201908161095c91906135b1565b50606082015181600301908161097291906135b1565b506080820151816004015560a0820151816005015560c08201518160060160006101000a81548173ffffffffffffffffffffffffffffffffffffffff021916908373ffffffffffffffffffffffffffffffffffffffff16021790555060e08201518160070160006101000a81548173ffffffffffffffffffffffffffffffffffffffff021916908373ffffffffffffffffffffffffffffffffffffffff1602179055506101008201518160070160146101000a81548160ff02191690836003811115610a4157610a40613080565b5b0217905550610120820151816008019080519060200190610a6392919061258c565b50905050610a718533610e94565b6003600081819054906101000a900460ff1680929190610a90906136bf565b91906101000a81548160ff021916908360ff160217905550507fd6b295ce4f4a60956957d305f1731bcdbc3896611dc63f9facb4202f997e14e785858585854233336001600067ffffffffffffffff811115610aef57610aee61275d565b5b604051908082528060200260200182016040528015610b1d5781602001602082028036833780820191505090505b50604051610b349a999897969594939291906131a6565b60405180910390a15050505050565b8360006003811115610b5857610b57613080565b5b600582604051610b68919061338e565b908152602001604051809103902060070160149054906101000a900460ff166003811115610b9957610b98613080565b5b03610bd9576040517f08c379a0000000000000000000000000000000000000000000000000000000008152600401610bd090613734565b60405180910390fd5b610be56002543361185e565b610bee57600080fd5b600080610bfa87611ac0565b5098509850505050505050503373ffffffffffffffffffffffffffffffffffffffff168273ffffffffffffffffffffffffffffffffffffffff1614610c74576040517f08c379a0000000000000000000000000000000000000000000000000000000008152600401610c6b906137c6565b60405180910390fd5b60026003811115610c8857610c87613080565b5b816003811115610c9b57610c9a613080565b5b03610cd2576040517fe81f511800000000000000000000000000000000000000000000000000000000815260040160405180910390fd5b85600588604051610ce3919061338e565b90815260200160405180910390206001019081610d0091906135b1565b5084600588604051610d12919061338e565b90815260200160405180910390206002019081610d2f91906135b1565b5083600588604051610d41919061338e565b9081526020016040518091039020600401819055507fa5dc66eb6128a83f690ed648445a97394e2b66104797ce5bc44e97dd6353310a87878787604051610d8b94939291906137e6565b60405180910390a150505050505050565b610da58261076f565b610dae8161233c565b610db88383612350565b50505050565b610dc6612441565b73ffffffffffffffffffffffffffffffffffffffff168173ffffffffffffffffffffffffffffffffffffffff1614610e2a576040517f6697b23200000000000000000000000000000000000000000000000000000000815260040160405180910390fd5b610e348282612449565b505050565b610e466000801b3361185e565b610e85576040517f08c379a0000000000000000000000000000000000000000000000000000000008152600401610e7c9061388c565b60405180910390fd5b610e9160015482610d9c565b50565b8160006003811115610ea957610ea8613080565b5b600582604051610eb9919061338e565b908152602001604051809103902060070160149054906101000a900460ff166003811115610eea57610ee9613080565b5b03610f2a576040517f08c379a0000000000000000000000000000000000000000000000000000000008152600401610f2190613734565b60405180910390fd5b6000600584604051610f3c919061338e565b9081526020016040518091039020905080600801839080600181540180825580915050600190039060005260206000200160009091909190916101000a81548173ffffffffffffffffffffffffffffffffffffffff021916908373ffffffffffffffffffffffffffffffffffffffff16021790555050505050565b8160006003811115610fcc57610fcb613080565b5b600582604051610fdc919061338e565b908152602001604051809103902060070160149054906101000a900460ff16600381111561100d5761100c613080565b5b0361104d576040517f08c379a000000000000000000000000000000000000000000000000000000000815260040161104490613734565b60405180910390fd5b600760009054906101000a900473ffffffffffffffffffffffffffffffffffffffff1673ffffffffffffffffffffffffffffffffffffffff163373ffffffffffffffffffffffffffffffffffffffff16146110dd576040517f08c379a00000000000000000000000000000000000000000000000000000000081526004016110d490613332565b60405180910390fd5b60006110e884611ac0565b50985050505050505050506002600381111561110757611106613080565b5b60ff1681600381111561111d5761111c613080565b5b60ff1614611160576040517f08c379a0000000000000000000000000000000000000000000000000000000008152600401611157906138f8565b60405180910390fd5b600060405180608001604052808681526020013373ffffffffffffffffffffffffffffffffffffffff1681526020018581526020014281525090506006856040516111ab919061338e565b908152602001604051809103902081908060018154018082558091505060019003906000526020600020906004020160009091909190915060008201518160000190816111f891906135b1565b5060208201518160010160006101000a81548173ffffffffffffffffffffffffffffffffffffffff021916908373ffffffffffffffffffffffffffffffffffffffff160217905550604082015181600201908161125591906135b1565b506060820151816003015550503373ffffffffffffffffffffffffffffffffffffffff1685604051611287919061338e565b60405180910390207f0337dc53a26042c7ee92541bf07244ab5ebb555d07c471dc04a588d1c6bcca7a866040516112be9190613918565b60405180910390a36004546006866040516112d9919061338e565b9081526020016040518091039020805490501061133c57846040516112fe919061338e565b60405180910390207f541f4ba871e796107eb7ff435f71c0c0acabb1f712e0286790e2b80e52731928604051611333906139ac565b60405180910390a25b5050505050565b6113506000801b3361185e565b61138f576040517f08c379a00000000000000000000000000000000000000000000000000000000081526004016113869061388c565b60405180910390fd5b61139b60025482610d9c565b50565b60045481565b60068280516020810182018051848252602083016020850120818352809550505050505081815481106113d657600080fd5b9060005260206000209060040201600091509150508060000180546113fa906133d4565b80601f0160208091040260200160405190810160405280929190818152602001828054611426906133d4565b80156114735780601f1061144857610100808354040283529160200191611473565b820191906000526020600020905b81548152906001019060200180831161145657829003601f168201915b5050505050908060010160009054906101000a900473ffffffffffffffffffffffffffffffffffffffff16908060020180546114ae906133d4565b80601f01602080910402602001604051908101604052809291908181526020018280546114da906133d4565b80156115275780601f106114fc57610100808354040283529160200191611527565b820191906000526020600020905b81548152906001019060200180831161150a57829003601f168201915b5050505050908060030154905084565b600960009054906101000a900473ffffffffffffffffffffffffffffffffffffffff1681565b826000600381111561157257611571613080565b5b600582604051611582919061338e565b908152602001604051809103902060070160149054906101000a900460ff1660038111156115b3576115b2613080565b5b036115f3576040517f08c379a00000000000000000000000000000000000000000000000000000000081526004016115ea90613734565b60405180910390fd5b600960009054906101000a900473ffffffffffffffffffffffffffffffffffffffff1673ffffffffffffffffffffffffffffffffffffffff163373ffffffffffffffffffffffffffffffffffffffff1614611683576040517f08c379a000000000000000000000000000000000000000000000000000000000815260040161167a90613a18565b60405180910390fd5b6000600585604051611695919061338e565b908152602001604051809103902090508060070160009054906101000a900473ffffffffffffffffffffffffffffffffffffffff1673ffffffffffffffffffffffffffffffffffffffff168473ffffffffffffffffffffffffffffffffffffffff1614611737576040517f08c379a000000000000000000000000000000000000000000000000000000000815260040161172e90613aaa565b60405180910390fd5b6002600381111561174b5761174a613080565b5b8160070160149054906101000a900460ff16600381111561176f5761176e613080565b5b146117af576040517f08c379a00000000000000000000000000000000000000000000000000000000081526004016117a6906138f8565b60405180910390fd5b828160070160006101000a81548173ffffffffffffffffffffffffffffffffffffffff021916908373ffffffffffffffffffffffffffffffffffffffff16021790555080600801839080600181540180825580915050600190039060005260206000200160009091909190916101000a81548173ffffffffffffffffffffffffffffffffffffffff021916908373ffffffffffffffffffffffffffffffffffffffff1602179055505050505050565b600080600084815260200190815260200160002060000160008373ffffffffffffffffffffffffffffffffffffffff1673ffffffffffffffffffffffffffffffffffffffff16815260200190815260200160002060009054906101000a900460ff16905092915050565b600860009054906101000a900473ffffffffffffffffffffffffffffffffffffffff1681565b600760009054906101000a900473ffffffffffffffffffffffffffffffffffffffff1673ffffffffffffffffffffffffffffffffffffffff163373ffffffffffffffffffffffffffffffffffffffff161461197e576040517f08c379a000000000000000000000000000000000000000000000000000000000815260040161197590613332565b60405180910390fd5b60068260405161198e919061338e565b90815260200160405180910390208054905081106119d8576040517f8469e76300000000000000000000000000000000000000000000000000000000815260040160405180910390fd5b6006826040516119e8919061338e565b90815260200160405180910390208181548110611a0857611a07613aca565b5b906000526020600020906004020160008082016000611a279190612616565b6001820160006101000a81549073ffffffffffffffffffffffffffffffffffffffff0219169055600282016000611a5e9190612616565b6003820160009055505081604051611a76919061338e565b60405180910390207fbc1f27b5d8e124e9a4b100d269fe9522988ca91da99880f5f8745297b4a17b7982604051611aad9190612ed3565b60405180910390a25050565b6000801b81565b606080606080600080600080600060608a60006003811115611ae557611ae4613080565b5b600582604051611af5919061338e565b908152602001604051809103902060070160149054906101000a900460ff166003811115611b2657611b25613080565b5b03611b66576040517f08c379a0000000000000000000000000000000000000000000000000000000008152600401611b5d90613734565b60405180910390fd5b600060058d604051611b78919061338e565b908152602001604051809103902060405180610140016040529081600082018054611ba2906133d4565b80601f0160208091040260200160405190810160405280929190818152602001828054611bce906133d4565b8015611c1b5780601f10611bf057610100808354040283529160200191611c1b565b820191906000526020600020905b815481529060010190602001808311611bfe57829003601f168201915b50505050508152602001600182018054611c34906133d4565b80601f0160208091040260200160405190810160405280929190818152602001828054611c60906133d4565b8015611cad5780601f10611c8257610100808354040283529160200191611cad565b820191906000526020600020905b815481529060010190602001808311611c9057829003601f168201915b50505050508152602001600282018054611cc6906133d4565b80601f0160208091040260200160405190810160405280929190818152602001828054611cf2906133d4565b8015611d3f5780601f10611d1457610100808354040283529160200191611d3f565b820191906000526020600020905b815481529060010190602001808311611d2257829003601f168201915b50505050508152602001600382018054611d58906133d4565b80601f0160208091040260200160405190810160405280929190818152602001828054611d84906133d4565b8015611dd15780601f10611da657610100808354040283529160200191611dd1565b820191906000526020600020905b815481529060010190602001808311611db457829003601f168201915b5050505050815260200160048201548152602001600582015481526020016006820160009054906101000a900473ffffffffffffffffffffffffffffffffffffffff1673ffffffffffffffffffffffffffffffffffffffff1673ffffffffffffffffffffffffffffffffffffffff1681526020016007820160009054906101000a900473ffffffffffffffffffffffffffffffffffffffff1673ffffffffffffffffffffffffffffffffffffffff1673ffffffffffffffffffffffffffffffffffffffff1681526020016007820160149054906101000a900460ff166003811115611ebf57611ebe613080565b5b6003811115611ed157611ed0613080565b5b815260200160088201805480602002602001604051908101604052809291908181526020018280548015611f5a57602002820191906000526020600020905b8160009054906101000a900473ffffffffffffffffffffffffffffffffffffffff1673ffffffffffffffffffffffffffffffffffffffff1681526020019060010190808311611f10575b5050505050815250509050806000015181602001518260400151836060015184608001518560a001518660c001518760e001518861010001518961012001519b509b509b509b509b509b509b509b509b509b5050509193959799509193959799565b611fc58261076f565b611fce8161233c565b611fd88383612449565b50505050565b8160006003811115611ff357611ff2613080565b5b600582604051612003919061338e565b908152602001604051809103902060070160149054906101000a900460ff16600381111561203457612033613080565b5b03612074576040517f08c379a000000000000000000000000000000000000000000000000000000000815260040161206b90613734565b60405180910390fd5b600860009054906101000a900473ffffffffffffffffffffffffffffffffffffffff1673ffffffffffffffffffffffffffffffffffffffff163373ffffffffffffffffffffffffffffffffffffffff1614612104576040517f08c379a00000000000000000000000000000000000000000000000000000000081526004016120fb90613b45565b60405180910390fd5b600061210f84611ac0565b50985050505050505050506001600381111561212e5761212d613080565b5b81600381111561214157612140613080565b5b14612181576040517f08c379a000000000000000000000000000000000000000000000000000000000815260040161217890613bb1565b60405180910390fd5b6000600585604051612193919061338e565b90815260200160405180910390209050838160070160146101000a81548160ff021916908360038111156121ca576121c9613080565b5b02179055507fb1644669494c2f4452e57d65b6d33a18024774010ab8ea56df1a9fec4fab5c85846002600381111561220557612204613080565b5b86600381111561221857612217613080565b5b14612258576040518060400160405280600f81526020017f50726f647563742072656675736564000000000000000000000000000000000081525061228f565b6040518060400160405280601181526020017f50726f647563742076616c6964617465640000000000000000000000000000008152505b60405161229d929190613bd1565b60405180910390a15050505050565b600760009054906101000a900473ffffffffffffffffffffffffffffffffffffffff1681565b60007f01ffc9a7000000000000000000000000000000000000000000000000000000007bffffffffffffffffffffffffffffffffffffffffffffffffffffffff1916827bffffffffffffffffffffffffffffffffffffffffffffffffffffffff1916149050919050565b61234d81612348612441565b61253b565b50565b600061235c838361185e565b61243657600160008085815260200190815260200160002060000160008473ffffffffffffffffffffffffffffffffffffffff1673ffffffffffffffffffffffffffffffffffffffff16815260200190815260200160002060006101000a81548160ff0219169083151502179055506123d3612441565b73ffffffffffffffffffffffffffffffffffffffff168273ffffffffffffffffffffffffffffffffffffffff16847f2f8788117e7eff1d82e926ec794901d17c78024a50270940304540a733656f0d60405160405180910390a46001905061243b565b600090505b92915050565b600033905090565b6000612455838361185e565b1561253057600080600085815260200190815260200160002060000160008473ffffffffffffffffffffffffffffffffffffffff1673ffffffffffffffffffffffffffffffffffffffff16815260200190815260200160002060006101000a81548160ff0219169083151502179055506124cd612441565b73ffffffffffffffffffffffffffffffffffffffff168273ffffffffffffffffffffffffffffffffffffffff16847ff6391f5c32d9c69d2a47ea670b442974b53935d1edc7fd64eb21e047a839171b60405160405180910390a460019050612535565b600090505b92915050565b612545828261185e565b6125885780826040517fe2517d3f00000000000000000000000000000000000000000000000000000000815260040161257f929190613c01565b60405180910390fd5b5050565b828054828255906000526020600020908101928215612605579160200282015b828111156126045782518260006101000a81548173ffffffffffffffffffffffffffffffffffffffff021916908373ffffffffffffffffffffffffffffffffffffffff160217905550916020019190600101906125ac565b5b5090506126129190612656565b5090565b508054612622906133d4565b6000825580601f106126345750612653565b601f0160209004906000526020600020908101906126529190612656565b5b50565b5b8082111561266f576000816000905550600101612657565b5090565b6000604051905090565b600080fd5b600080fd5b60007fffffffff0000000000000000000000000000000000000000000000000000000082169050919050565b6126bc81612687565b81146126c757600080fd5b50565b6000813590506126d9816126b3565b92915050565b6000602082840312156126f5576126f461267d565b5b6000612703848285016126ca565b91505092915050565b60008115159050919050565b6127218161270c565b82525050565b600060208201905061273c6000830184612718565b92915050565b600080fd5b600080fd5b6000601f19601f8301169050919050565b7f4e487b7100000000000000000000000000000000000000000000000000000000600052604160045260246000fd5b6127958261274c565b810181811067ffffffffffffffff821117156127b4576127b361275d565b5b80604052505050565b60006127c7612673565b90506127d3828261278c565b919050565b600067ffffffffffffffff8211156127f3576127f261275d565b5b6127fc8261274c565b9050602081019050919050565b82818337600083830152505050565b600061282b612826846127d8565b6127bd565b90508281526020810184848401111561284757612846612747565b5b612852848285612809565b509392505050565b600082601f83011261286f5761286e612742565b5b813561287f848260208601612818565b91505092915050565b60006020828403121561289e5761289d61267d565b5b600082013567ffffffffffffffff8111156128bc576128bb612682565b5b6128c88482850161285a565b91505092915050565b600081519050919050565b600082825260208201905092915050565b6000819050602082019050919050565b600081519050919050565b600082825260208201905092915050565b60005b8381101561293757808201518184015260208101905061291c565b60008484015250505050565b600061294e826128fd565b6129588185612908565b9350612968818560208601612919565b6129718161274c565b840191505092915050565b600073ffffffffffffffffffffffffffffffffffffffff82169050919050565b60006129a78261297c565b9050919050565b6129b78161299c565b82525050565b6000819050919050565b6129d0816129bd565b82525050565b600060808301600083015184820360008601526129f38282612943565b9150506020830151612a0860208601826129ae565b5060408301518482036040860152612a208282612943565b9150506060830151612a3560608601826129c7565b508091505092915050565b6000612a4c83836129d6565b905092915050565b6000602082019050919050565b6000612a6c826128d1565b612a7681856128dc565b935083602082028501612a88856128ed565b8060005b85811015612ac45784840389528151612aa58582612a40565b9450612ab083612a54565b925060208a01995050600181019050612a8c565b50829750879550505050505092915050565b60006020820190508181036000830152612af08184612a61565b905092915050565b6000819050919050565b612b0b81612af8565b8114612b1657600080fd5b50565b600081359050612b2881612b02565b92915050565b600060208284031215612b4457612b4361267d565b5b6000612b5284828501612b19565b91505092915050565b612b6481612af8565b82525050565b6000602082019050612b7f6000830184612b5b565b92915050565b612b8e816129bd565b8114612b9957600080fd5b50565b600081359050612bab81612b85565b92915050565b600080600080600060a08688031215612bcd57612bcc61267d565b5b600086013567ffffffffffffffff811115612beb57612bea612682565b5b612bf78882890161285a565b955050602086013567ffffffffffffffff811115612c1857612c17612682565b5b612c248882890161285a565b945050604086013567ffffffffffffffff811115612c4557612c44612682565b5b612c518882890161285a565b935050606086013567ffffffffffffffff811115612c7257612c71612682565b5b612c7e8882890161285a565b9250506080612c8f88828901612b9c565b9150509295509295909350565b60008060008060808587031215612cb657612cb561267d565b5b600085013567ffffffffffffffff811115612cd457612cd3612682565b5b612ce08782880161285a565b945050602085013567ffffffffffffffff811115612d0157612d00612682565b5b612d0d8782880161285a565b935050604085013567ffffffffffffffff811115612d2e57612d2d612682565b5b612d3a8782880161285a565b9250506060612d4b87828801612b9c565b91505092959194509250565b612d608161299c565b8114612d6b57600080fd5b50565b600081359050612d7d81612d57565b92915050565b60008060408385031215612d9a57612d9961267d565b5b6000612da885828601612b19565b9250506020612db985828601612d6e565b9150509250929050565b600060208284031215612dd957612dd861267d565b5b6000612de784828501612d6e565b91505092915050565b60008060408385031215612e0757612e0661267d565b5b600083013567ffffffffffffffff811115612e2557612e24612682565b5b612e318582860161285a565b9250506020612e4285828601612d6e565b9150509250929050565b60008060408385031215612e6357612e6261267d565b5b600083013567ffffffffffffffff811115612e8157612e80612682565b5b612e8d8582860161285a565b925050602083013567ffffffffffffffff811115612eae57612ead612682565b5b612eba8582860161285a565b9150509250929050565b612ecd816129bd565b82525050565b6000602082019050612ee86000830184612ec4565b92915050565b60008060408385031215612f0557612f0461267d565b5b600083013567ffffffffffffffff811115612f2357612f22612682565b5b612f2f8582860161285a565b9250506020612f4085828601612b9c565b9150509250929050565b600082825260208201905092915050565b6000612f66826128fd565b612f708185612f4a565b9350612f80818560208601612919565b612f898161274c565b840191505092915050565b612f9d8161299c565b82525050565b60006080820190508181036000830152612fbd8187612f5b565b9050612fcc6020830186612f94565b8181036040830152612fde8185612f5b565b9050612fed6060830184612ec4565b95945050505050565b600060208201905061300b6000830184612f94565b92915050565b60008060006060848603121561302a5761302961267d565b5b600084013567ffffffffffffffff81111561304857613047612682565b5b6130548682870161285a565b935050602061306586828701612d6e565b925050604061307686828701612d6e565b9150509250925092565b7f4e487b7100000000000000000000000000000000000000000000000000000000600052602160045260246000fd5b600481106130c0576130bf613080565b5b50565b60008190506130d1826130af565b919050565b60006130e1826130c3565b9050919050565b6130f1816130d6565b82525050565b600081519050919050565b600082825260208201905092915050565b6000819050602082019050919050565b600061312f83836129ae565b60208301905092915050565b6000602082019050919050565b6000613153826130f7565b61315d8185613102565b935061316883613113565b8060005b838110156131995781516131808882613123565b975061318b8361313b565b92505060018101905061316c565b5085935050505092915050565b60006101408201905081810360008301526131c1818d612f5b565b905081810360208301526131d5818c612f5b565b905081810360408301526131e9818b612f5b565b905081810360608301526131fd818a612f5b565b905061320c6080830189612ec4565b61321960a0830188612ec4565b61322660c0830187612f94565b61323360e0830186612f94565b6132416101008301856130e8565b8181036101208301526132548184613148565b90509b9a5050505050505050505050565b6004811061327257600080fd5b50565b60008135905061328481613265565b92915050565b600080604083850312156132a1576132a061267d565b5b600083013567ffffffffffffffff8111156132bf576132be612682565b5b6132cb8582860161285a565b92505060206132dc85828601613275565b9150509250929050565b7f4e6f7420636f756e746572666569745265706f7274656420436f6e7472616374600082015250565b600061331c602083612f4a565b9150613327826132e6565b602082019050919050565b6000602082019050818103600083015261334b8161330f565b9050919050565b600081905092915050565b6000613368826128fd565b6133728185613352565b9350613382818560208601612919565b80840191505092915050565b600061339a828461335d565b915081905092915050565b7f4e487b7100000000000000000000000000000000000000000000000000000000600052602260045260246000fd5b600060028204905060018216806133ec57607f821691505b6020821081036133ff576133fe6133a5565b5b50919050565b60008190508160005260206000209050919050565b60006020601f8301049050919050565b600082821b905092915050565b6000600883026134677fffffffffffffffffffffffffffffffffffffffffffffffffffffffffffffffff8261342a565b613471868361342a565b95508019841693508086168417925050509392505050565b6000819050919050565b60006134ae6134a96134a4846129bd565b613489565b6129bd565b9050919050565b6000819050919050565b6134c883613493565b6134dc6134d4826134b5565b848454613437565b825550505050565b600090565b6134f16134e4565b6134fc8184846134bf565b505050565b5b81811015613520576135156000826134e9565b600181019050613502565b5050565b601f8211156135655761353681613405565b61353f8461341a565b8101602085101561354e578190505b61356261355a8561341a565b830182613501565b50505b505050565b600082821c905092915050565b60006135886000198460080261356a565b1980831691505092915050565b60006135a18383613577565b9150826002028217905092915050565b6135ba826128fd565b67ffffffffffffffff8111156135d3576135d261275d565b5b6135dd82546133d4565b6135e8828285613524565b600060209050601f83116001811461361b5760008415613609578287015190505b6136138582613595565b86555061367b565b601f19841661362986613405565b60005b828110156136515784890151825560018201915060208501945060208101905061362c565b8683101561366e578489015161366a601f891682613577565b8355505b6001600288020188555050505b505050505050565b7f4e487b7100000000000000000000000000000000000000000000000000000000600052601160045260246000fd5b600060ff82169050919050565b60006136ca826136b2565b915060ff82036136dd576136dc613683565b5b600182019050919050565b7f50726f6475637420646f6573206e6f7420657869737473000000000000000000600082015250565b600061371e601783612f4a565b9150613729826136e8565b602082019050919050565b6000602082019050818103600083015261374d81613711565b9050919050565b7f4d757374206265207468652070726f64756374206f776e657220746f2070657260008201527f666f726d207468697320616374696f6e00000000000000000000000000000000602082015250565b60006137b0603083612f4a565b91506137bb82613754565b604082019050919050565b600060208201905081810360008301526137df816137a3565b9050919050565b600060808201905081810360008301526138008187612f5b565b905081810360208301526138148186612f5b565b905081810360408301526138288185612f5b565b90506138376060830184612ec4565b95945050505050565b7f4e6f74207468652061646d696e00000000000000000000000000000000000000600082015250565b6000613876600d83612f4a565b915061388182613840565b602082019050919050565b600060208201905081810360008301526138a581613869565b9050919050565b7f50726f64756374206e6f742076616c6964617465642079657400000000000000600082015250565b60006138e2601983612f4a565b91506138ed826138ac565b602082019050919050565b60006020820190508181036000830152613911816138d5565b9050919050565b600060208201905081810360008301526139328184612f5b565b905092915050565b7f48696768206e756d626572206f6620636f756e74657266656974207265706f7260008201527f74732e20496e7665737469676174696f6e206e65656465642e00000000000000602082015250565b6000613996603983612f4a565b91506139a18261393a565b604082019050919050565b600060208201905081810360008301526139c581613989565b9050919050565b7f4e6f74206f776e6572736869705472616e73666572436f6e7472616374000000600082015250565b6000613a02601d83612f4a565b9150613a0d826139cc565b602082019050919050565b60006020820190508181036000830152613a31816139f5565b9050919050565b7f4f6e6c792070726f64756374206f776e65722063616e207472616e736665722060008201527f70726f6475637400000000000000000000000000000000000000000000000000602082015250565b6000613a94602783612f4a565b9150613a9f82613a38565b604082019050919050565b60006020820190508181036000830152613ac381613a87565b9050919050565b7f4e487b7100000000000000000000000000000000000000000000000000000000600052603260045260246000fd5b7f4e6f742070726f6475637456616c69646174696f6e20636f6e74726163740000600082015250565b6000613b2f601e83612f4a565b9150613b3a82613af9565b602082019050919050565b60006020820190508181036000830152613b5e81613b22565b9050919050565b7f50726f6475637420616c72656164792074726561746564000000000000000000600082015250565b6000613b9b601783612f4a565b9150613ba682613b65565b602082019050919050565b60006020820190508181036000830152613bca81613b8e565b9050919050565b6000604082019050613be660008301856130e8565b8181036020830152613bf88184612f5b565b90509392505050565b6000604082019050613c166000830185612f94565b613c236020830184612b5b565b939250505056fea2646970667358221220495b37f22fd18fa3ec92ae7f9713989811c83d2273201d24a5174b693fc6c8b064736f6c63430008180033",
  "linkReferences": {},
  "deployedLinkReferences": {}
}