{
  "_format": "hh-sol-artifact-1",
  "contractName": "ProductRegistrationContract",
  "sourceName": "contracts/ProductRegistrationContract.sol",
  "abi": [
    {
      "inputs": [
        {
          "internalType": "address",
          "name": "userManagementContractAddress",
          "type": "address"
        }
      ],
      "stateMutability": "nonpayable",
      "type": "constructor"
    },
    {
      "inputs": [],
      "name": "InvalidReportIndex",
      "type": "error"
    },
    {
      "inputs": [],
      "name": "onlyAdmin",
      "type": "error"
    },
    {
      "inputs": [],
      "name": "onlyMaker",
      "type": "error"
    },
    {
      "inputs": [],
      "name": "onlyValidator",
      "type": "error"
    },
    {
      "inputs": [],
      "name": "productAlreadyExists",
      "type": "error"
    },
    {
      "inputs": [],
      "name": "productAlreadyValidated",
      "type": "error"
    },
    {
      "anonymous": false,
      "inputs": [
        {
          "indexed": true,
          "internalType": "string",
          "name": "serialNumber",
          "type": "string"
        },
        {
          "indexed": false,
          "internalType": "string",
          "name": "message",
          "type": "string"
        }
      ],
      "name": "AlertIssued",
      "type": "event"
    },
    {
      "anonymous": false,
      "inputs": [
        {
          "indexed": true,
          "internalType": "string",
          "name": "serialNumber",
          "type": "string"
        },
        {
          "indexed": true,
          "internalType": "address",
          "name": "reporter",
          "type": "address"
        },
        {
          "indexed": false,
          "internalType": "string",
          "name": "details",
          "type": "string"
        }
      ],
      "name": "CounterfeitReported",
      "type": "event"
    },
    {
      "anonymous": false,
      "inputs": [
        {
          "indexed": false,
          "internalType": "string",
          "name": "serialNumber",
          "type": "string"
        },
        {
          "indexed": false,
          "internalType": "string",
          "name": "name",
          "type": "string"
        },
        {
          "indexed": false,
          "internalType": "string",
          "name": "description",
          "type": "string"
        },
        {
          "indexed": false,
          "internalType": "string",
          "name": "picture",
          "type": "string"
        },
        {
          "indexed": false,
          "internalType": "uint256",
          "name": "price",
          "type": "uint256"
        },
        {
          "indexed": false,
          "internalType": "uint256",
          "name": "registrationDate",
          "type": "uint256"
        },
        {
          "indexed": false,
          "internalType": "address",
          "name": "manufacter",
          "type": "address"
        },
        {
          "indexed": false,
          "internalType": "address",
          "name": "owner",
          "type": "address"
        },
        {
          "indexed": false,
          "internalType": "enum ProductStatus",
          "name": "status",
          "type": "uint8"
        },
        {
          "indexed": false,
          "internalType": "address[]",
          "name": "owners",
          "type": "address[]"
        }
      ],
      "name": "NewProductAdded",
      "type": "event"
    },
    {
      "anonymous": false,
      "inputs": [
        {
          "indexed": false,
          "internalType": "enum ProductStatus",
          "name": "status",
          "type": "uint8"
        },
        {
          "indexed": false,
          "internalType": "string",
          "name": "message",
          "type": "string"
        }
      ],
      "name": "ProductSatusChanged",
      "type": "event"
    },
    {
      "anonymous": false,
      "inputs": [
        {
          "indexed": false,
          "internalType": "string",
          "name": "serialNumber",
          "type": "string"
        },
        {
          "indexed": false,
          "internalType": "string",
          "name": "name",
          "type": "string"
        },
        {
          "indexed": false,
          "internalType": "string",
          "name": "description",
          "type": "string"
        },
        {
          "indexed": false,
          "internalType": "uint256",
          "name": "price",
          "type": "uint256"
        }
      ],
      "name": "ProductUpdated",
      "type": "event"
    },
    {
      "anonymous": false,
      "inputs": [
        {
          "indexed": true,
          "internalType": "string",
          "name": "serialNumber",
          "type": "string"
        },
        {
          "indexed": false,
          "internalType": "uint256",
          "name": "reportIndex",
          "type": "uint256"
        }
      ],
      "name": "ReportResolved",
      "type": "event"
    },
    {
      "inputs": [
        {
          "internalType": "string",
          "name": "_serialNumber",
          "type": "string"
        },
        {
          "internalType": "string",
          "name": "_name",
          "type": "string"
        },
        {
          "internalType": "string",
          "name": "_description",
          "type": "string"
        },
        {
          "internalType": "string",
          "name": "_picture",
          "type": "string"
        },
        {
          "internalType": "uint256",
          "name": "_price",
          "type": "uint256"
        }
      ],
      "name": "addProduct",
      "outputs": [],
      "stateMutability": "nonpayable",
      "type": "function"
    },
    {
      "inputs": [
        {
          "internalType": "string",
          "name": "_serialNumber",
          "type": "string"
        },
        {
          "internalType": "address",
          "name": "_owner",
          "type": "address"
        }
      ],
      "name": "appendOwnerToProductOwners",
      "outputs": [],
      "stateMutability": "nonpayable",
      "type": "function"
    },
    {
      "inputs": [
        {
          "internalType": "string",
          "name": "_serialNumber",
          "type": "string"
        },
        {
          "internalType": "enum ProductStatus",
          "name": "_status",
          "type": "uint8"
        }
      ],
      "name": "approveOrRejectProduct",
      "outputs": [],
      "stateMutability": "nonpayable",
      "type": "function"
    },
    {
      "inputs": [
        {
          "internalType": "string",
          "name": "_serialNumber",
          "type": "string"
        }
      ],
      "name": "getReports",
      "outputs": [
        {
          "components": [
            {
              "internalType": "string",
              "name": "serialNumber",
              "type": "string"
            },
            {
              "internalType": "address",
              "name": "reporter",
              "type": "address"
            },
            {
              "internalType": "string",
              "name": "details",
              "type": "string"
            },
            {
              "internalType": "uint256",
              "name": "reportDate",
              "type": "uint256"
            }
          ],
          "internalType": "struct Report[]",
          "name": "",
          "type": "tuple[]"
        }
      ],
      "stateMutability": "view",
      "type": "function"
    },
    {
      "inputs": [
        {
          "internalType": "string",
          "name": "_serialNumber",
          "type": "string"
        },
        {
          "internalType": "string",
          "name": "_details",
          "type": "string"
        }
      ],
      "name": "reportProduct",
      "outputs": [],
      "stateMutability": "nonpayable",
      "type": "function"
    },
    {
      "inputs": [
        {
          "internalType": "string",
          "name": "_serialNumber",
          "type": "string"
        },
        {
          "internalType": "uint256",
          "name": "reportIndex",
          "type": "uint256"
        }
      ],
      "name": "resolveReport",
      "outputs": [],
      "stateMutability": "nonpayable",
      "type": "function"
    },
    {
      "inputs": [],
      "name": "s_alertThreshold",
      "outputs": [
        {
          "internalType": "uint256",
          "name": "",
          "type": "uint256"
        }
      ],
      "stateMutability": "view",
      "type": "function"
    },
    {
      "inputs": [
        {
          "internalType": "string",
          "name": "",
          "type": "string"
        },
        {
          "internalType": "uint256",
          "name": "",
          "type": "uint256"
        }
      ],
      "name": "s_counterfeitReports",
      "outputs": [
        {
          "internalType": "string",
          "name": "serialNumber",
          "type": "string"
        },
        {
          "internalType": "address",
          "name": "reporter",
          "type": "address"
        },
        {
          "internalType": "string",
          "name": "details",
          "type": "string"
        },
        {
          "internalType": "uint256",
          "name": "reportDate",
          "type": "uint256"
        }
      ],
      "stateMutability": "view",
      "type": "function"
    },
    {
      "inputs": [
        {
          "internalType": "string",
          "name": "_serialNumber",
          "type": "string"
        }
      ],
      "name": "showProductInfos",
      "outputs": [
        {
          "internalType": "string",
          "name": "",
          "type": "string"
        },
        {
          "internalType": "string",
          "name": "",
          "type": "string"
        },
        {
          "internalType": "string",
          "name": "",
          "type": "string"
        },
        {
          "internalType": "string",
          "name": "",
          "type": "string"
        },
        {
          "internalType": "uint256",
          "name": "",
          "type": "uint256"
        },
        {
          "internalType": "uint256",
          "name": "",
          "type": "uint256"
        },
        {
          "internalType": "address",
          "name": "",
          "type": "address"
        },
        {
          "internalType": "address",
          "name": "",
          "type": "address"
        },
        {
          "internalType": "enum ProductStatus",
          "name": "",
          "type": "uint8"
        },
        {
          "internalType": "address[]",
          "name": "",
          "type": "address[]"
        }
      ],
      "stateMutability": "view",
      "type": "function"
    },
    {
      "inputs": [
        {
          "internalType": "string",
          "name": "_serialNumber",
          "type": "string"
        },
        {
          "internalType": "address",
          "name": "_newOwner",
          "type": "address"
        }
      ],
      "name": "transferProduct",
      "outputs": [],
      "stateMutability": "nonpayable",
      "type": "function"
    },
    {
      "inputs": [
        {
          "internalType": "string",
          "name": "_serialNumber",
          "type": "string"
        },
        {
          "internalType": "string",
          "name": "_name",
          "type": "string"
        },
        {
          "internalType": "string",
          "name": "_description",
          "type": "string"
        },
        {
          "internalType": "uint256",
          "name": "_price",
          "type": "uint256"
        }
      ],
      "name": "updateProduct",
      "outputs": [],
      "stateMutability": "nonpayable",
      "type": "function"
    }
  ],
  "bytecode": "0x608060405260008060006101000a81548160ff021916908360ff16021790555060036001553480156200003157600080fd5b506040516200335c3803806200335c83398181016040528101906200005791906200014a565b80600460006101000a81548173ffffffffffffffffffffffffffffffffffffffff021916908373ffffffffffffffffffffffffffffffffffffffff16021790555033600560006101000a81548173ffffffffffffffffffffffffffffffffffffffff021916908373ffffffffffffffffffffffffffffffffffffffff160217905550506200017c565b600080fd5b600073ffffffffffffffffffffffffffffffffffffffff82169050919050565b60006200011282620000e5565b9050919050565b620001248162000105565b81146200013057600080fd5b50565b600081519050620001448162000119565b92915050565b600060208284031215620001635762000162620000e0565b5b6000620001738482850162000133565b91505092915050565b6131d0806200018c6000396000f3fe608060405234801561001057600080fd5b50600436106100a95760003560e01c80636b4d2a74116100715780636b4d2a741461014e57806378cc5a361461016c57806390afcb9d1461019f5780639ed76680146101bb578063cd2f58b8146101d7578063f0a9cdac14610210576100a9565b80631a68638a146100ae57806325dfbfba146100de5780632bccd42b146100fa57806354833e10146101165780635abdd44f14610132575b600080fd5b6100c860048036038101906100c391906120c2565b61022c565b6040516100d59190612310565b60405180910390f35b6100f860048036038101906100f3919061235e565b61042d565b005b610114600480360381019061010f9190612449565b6108cb565b005b610130600480360381019061012b9190612530565b610c14565b005b61014c6004803603810190610147919061258c565b610d3d565b005b610156611147565b6040516101639190612613565b60405180910390f35b6101866004803603810190610181919061262e565b61114d565b60405161019694939291906126e3565b60405180910390f35b6101b960048036038101906101b49190612530565b6112e0565b005b6101d560048036038101906101d0919061262e565b611556565b005b6101f160048036038101906101ec91906120c2565b611718565b6040516102079a9998979695949392919061285c565b60405180910390f35b61022a60048036038101906102259190612940565b611c1a565b005b606060038260405161023e91906129d8565b9081526020016040518091039020805480602002602001604051908101604052809291908181526020016000905b82821015610422578382906000526020600020906004020160405180608001604052908160008201805461029f90612a1e565b80601f01602080910402602001604051908101604052809291908181526020018280546102cb90612a1e565b80156103185780601f106102ed57610100808354040283529160200191610318565b820191906000526020600020905b8154815290600101906020018083116102fb57829003601f168201915b505050505081526020016001820160009054906101000a900473ffffffffffffffffffffffffffffffffffffffff1673ffffffffffffffffffffffffffffffffffffffff1673ffffffffffffffffffffffffffffffffffffffff16815260200160028201805461038790612a1e565b80601f01602080910402602001604051908101604052809291908181526020018280546103b390612a1e565b80156104005780601f106103d557610100808354040283529160200191610400565b820191906000526020600020905b8154815290600101906020018083116103e357829003601f168201915b505050505081526020016003820154815250508152602001906001019061026c565b505050509050919050565b6000600460009054906101000a900473ffffffffffffffffffffffffffffffffffffffff1673ffffffffffffffffffffffffffffffffffffffff16636f77926b336040518263ffffffff1660e01b815260040161048a9190612a4f565b602060405180830381865afa1580156104a7573d6000803e3d6000fd5b505050506040513d601f19601f820116820180604052508101906104cb9190612a8f565b9050600160038111156104e1576104e0612736565b5b8160038111156104f4576104f3612736565b5b1461052b576040517f0d43965400000000000000000000000000000000000000000000000000000000815260040160405180910390fd5b6000600381111561053f5761053e612736565b5b60028760405161054f91906129d8565b908152602001604051809103902060070160149054906101000a900460ff1660038111156105805761057f612736565b5b146105b7576040517fe66a8a2800000000000000000000000000000000000000000000000000000000815260040160405180910390fd5b6040518061014001604052808781526020018681526020018581526020018481526020018381526020014281526020013373ffffffffffffffffffffffffffffffffffffffff1681526020013373ffffffffffffffffffffffffffffffffffffffff1681526020016001600381111561063357610632612736565b5b8152602001600067ffffffffffffffff81111561065357610652611f97565b5b6040519080825280602002602001820160405280156106815781602001602082028036833780820191505090505b5081525060028760405161069591906129d8565b908152602001604051809103902060008201518160000190816106b89190612c68565b5060208201518160010190816106ce9190612c68565b5060408201518160020190816106e49190612c68565b5060608201518160030190816106fa9190612c68565b506080820151816004015560a0820151816005015560c08201518160060160006101000a81548173ffffffffffffffffffffffffffffffffffffffff021916908373ffffffffffffffffffffffffffffffffffffffff16021790555060e08201518160070160006101000a81548173ffffffffffffffffffffffffffffffffffffffff021916908373ffffffffffffffffffffffffffffffffffffffff1602179055506101008201518160070160146101000a81548160ff021916908360038111156107c9576107c8612736565b5b02179055506101208201518160080190805190602001906107eb929190611e81565b509050506107f98633610c14565b60008081819054906101000a900460ff168092919061081790612d76565b91906101000a81548160ff021916908360ff160217905550507fd6b295ce4f4a60956957d305f1731bcdbc3896611dc63f9facb4202f997e14e786868686864233336001600067ffffffffffffffff81111561087657610875611f97565b5b6040519080825280602002602001820160405280156108a45781602001602082028036833780820191505090505b506040516108bb9a9998979695949392919061285c565b60405180910390a1505050505050565b83600060038111156108e0576108df612736565b5b60ff166002826040516108f391906129d8565b908152602001604051809103902060070160149054906101000a900460ff16600381111561092457610923612736565b5b60ff1603610967576040517f08c379a000000000000000000000000000000000000000000000000000000000815260040161095e90612deb565b60405180910390fd5b6000600460009054906101000a900473ffffffffffffffffffffffffffffffffffffffff1673ffffffffffffffffffffffffffffffffffffffff16636f77926b336040518263ffffffff1660e01b81526004016109c49190612a4f565b602060405180830381865afa1580156109e1573d6000803e3d6000fd5b505050506040513d601f19601f82011682018060405250810190610a059190612a8f565b905060016003811115610a1b57610a1a612736565b5b816003811115610a2e57610a2d612736565b5b14610a65576040517f0d43965400000000000000000000000000000000000000000000000000000000815260040160405180910390fd5b600080610a7188611718565b5098509850505050505050503373ffffffffffffffffffffffffffffffffffffffff168273ffffffffffffffffffffffffffffffffffffffff1614610aeb576040517f08c379a0000000000000000000000000000000000000000000000000000000008152600401610ae290612e7d565b60405180910390fd5b60026003811115610aff57610afe612736565b5b816003811115610b1257610b11612736565b5b03610b49576040517fe81f511800000000000000000000000000000000000000000000000000000000815260040160405180910390fd5b86600289604051610b5a91906129d8565b90815260200160405180910390206001019081610b779190612c68565b5085600289604051610b8991906129d8565b90815260200160405180910390206002019081610ba69190612c68565b5084600289604051610bb891906129d8565b9081526020016040518091039020600401819055507fa5dc66eb6128a83f690ed648445a97394e2b66104797ce5bc44e97dd6353310a88888888604051610c029493929190612e9d565b60405180910390a15050505050505050565b8160006003811115610c2957610c28612736565b5b60ff16600282604051610c3c91906129d8565b908152602001604051809103902060070160149054906101000a900460ff166003811115610c6d57610c6c612736565b5b60ff1603610cb0576040517f08c379a0000000000000000000000000000000000000000000000000000000008152600401610ca790612deb565b60405180910390fd5b6000600284604051610cc291906129d8565b9081526020016040518091039020905080600801839080600181540180825580915050600190039060005260206000200160009091909190916101000a81548173ffffffffffffffffffffffffffffffffffffffff021916908373ffffffffffffffffffffffffffffffffffffffff16021790555050505050565b8160006003811115610d5257610d51612736565b5b60ff16600282604051610d6591906129d8565b908152602001604051809103902060070160149054906101000a900460ff166003811115610d9657610d95612736565b5b60ff1603610dd9576040517f08c379a0000000000000000000000000000000000000000000000000000000008152600401610dd090612deb565b60405180910390fd5b6000600460009054906101000a900473ffffffffffffffffffffffffffffffffffffffff1673ffffffffffffffffffffffffffffffffffffffff16636f77926b336040518263ffffffff1660e01b8152600401610e369190612a4f565b602060405180830381865afa158015610e53573d6000803e3d6000fd5b505050506040513d601f19601f82011682018060405250810190610e779190612a8f565b90506000610e8485611718565b509850505050505050505060026003811115610ea357610ea2612736565b5b60ff16816003811115610eb957610eb8612736565b5b60ff1614610efc576040517f08c379a0000000000000000000000000000000000000000000000000000000008152600401610ef390612f43565b60405180910390fd5b60026003811115610f1057610f0f612736565b5b826003811115610f2357610f22612736565b5b14610f63576040517f08c379a0000000000000000000000000000000000000000000000000000000008152600401610f5a90612fd5565b60405180910390fd5b600060405180608001604052808781526020013373ffffffffffffffffffffffffffffffffffffffff168152602001868152602001428152509050600386604051610fae91906129d8565b90815260200160405180910390208190806001815401808255809150506001900390600052602060002090600402016000909190919091506000820151816000019081610ffb9190612c68565b5060208201518160010160006101000a81548173ffffffffffffffffffffffffffffffffffffffff021916908373ffffffffffffffffffffffffffffffffffffffff16021790555060408201518160020190816110589190612c68565b506060820151816003015550503373ffffffffffffffffffffffffffffffffffffffff168660405161108a91906129d8565b60405180910390207f0337dc53a26042c7ee92541bf07244ab5ebb555d07c471dc04a588d1c6bcca7a876040516110c19190612ff5565b60405180910390a36001546003876040516110dc91906129d8565b9081526020016040518091039020805490501061113f578560405161110191906129d8565b60405180910390207f541f4ba871e796107eb7ff435f71c0c0acabb1f712e0286790e2b80e5273192860405161113690613089565b60405180910390a25b505050505050565b60015481565b600382805160208101820180518482526020830160208501208183528095505050505050818154811061117f57600080fd5b9060005260206000209060040201600091509150508060000180546111a390612a1e565b80601f01602080910402602001604051908101604052809291908181526020018280546111cf90612a1e565b801561121c5780601f106111f15761010080835404028352916020019161121c565b820191906000526020600020905b8154815290600101906020018083116111ff57829003601f168201915b5050505050908060010160009054906101000a900473ffffffffffffffffffffffffffffffffffffffff169080600201805461125790612a1e565b80601f016020809104026020016040519081016040528092919081815260200182805461128390612a1e565b80156112d05780601f106112a5576101008083540402835291602001916112d0565b820191906000526020600020905b8154815290600101906020018083116112b357829003601f168201915b5050505050908060030154905084565b81600060038111156112f5576112f4612736565b5b60ff1660028260405161130891906129d8565b908152602001604051809103902060070160149054906101000a900460ff16600381111561133957611338612736565b5b60ff160361137c576040517f08c379a000000000000000000000000000000000000000000000000000000000815260040161137390612deb565b60405180910390fd5b600060028460405161138e91906129d8565b908152602001604051809103902090508060070160009054906101000a900473ffffffffffffffffffffffffffffffffffffffff1673ffffffffffffffffffffffffffffffffffffffff163373ffffffffffffffffffffffffffffffffffffffff1614611430576040517f08c379a00000000000000000000000000000000000000000000000000000000081526004016114279061311b565b60405180910390fd5b6002600381111561144457611443612736565b5b8160070160149054906101000a900460ff16600381111561146857611467612736565b5b146114a8576040517f08c379a000000000000000000000000000000000000000000000000000000000815260040161149f90612f43565b60405180910390fd5b828160070160006101000a81548173ffffffffffffffffffffffffffffffffffffffff021916908373ffffffffffffffffffffffffffffffffffffffff16021790555080600801839080600181540180825580915050600190039060005260206000200160009091909190916101000a81548173ffffffffffffffffffffffffffffffffffffffff021916908373ffffffffffffffffffffffffffffffffffffffff16021790555050505050565b600560009054906101000a900473ffffffffffffffffffffffffffffffffffffffff1673ffffffffffffffffffffffffffffffffffffffff163373ffffffffffffffffffffffffffffffffffffffff16146115dd576040517fa5f7823e00000000000000000000000000000000000000000000000000000000815260040160405180910390fd5b6003826040516115ed91906129d8565b9081526020016040518091039020805490508110611637576040517f8469e76300000000000000000000000000000000000000000000000000000000815260040160405180910390fd5b60038260405161164791906129d8565b908152602001604051809103902081815481106116675761166661313b565b5b9060005260206000209060040201600080820160006116869190611f0b565b6001820160006101000a81549073ffffffffffffffffffffffffffffffffffffffff02191690556002820160006116bd9190611f0b565b60038201600090555050816040516116d591906129d8565b60405180910390207fbc1f27b5d8e124e9a4b100d269fe9522988ca91da99880f5f8745297b4a17b798260405161170c9190612613565b60405180910390a25050565b606080606080600080600080600060608a6000600381111561173d5761173c612736565b5b60ff1660028260405161175091906129d8565b908152602001604051809103902060070160149054906101000a900460ff16600381111561178157611780612736565b5b60ff16036117c4576040517f08c379a00000000000000000000000000000000000000000000000000000000081526004016117bb90612deb565b60405180910390fd5b600060028d6040516117d691906129d8565b90815260200160405180910390206040518061014001604052908160008201805461180090612a1e565b80601f016020809104026020016040519081016040528092919081815260200182805461182c90612a1e565b80156118795780601f1061184e57610100808354040283529160200191611879565b820191906000526020600020905b81548152906001019060200180831161185c57829003601f168201915b5050505050815260200160018201805461189290612a1e565b80601f01602080910402602001604051908101604052809291908181526020018280546118be90612a1e565b801561190b5780601f106118e05761010080835404028352916020019161190b565b820191906000526020600020905b8154815290600101906020018083116118ee57829003601f168201915b5050505050815260200160028201805461192490612a1e565b80601f016020809104026020016040519081016040528092919081815260200182805461195090612a1e565b801561199d5780601f106119725761010080835404028352916020019161199d565b820191906000526020600020905b81548152906001019060200180831161198057829003601f168201915b505050505081526020016003820180546119b690612a1e565b80601f01602080910402602001604051908101604052809291908181526020018280546119e290612a1e565b8015611a2f5780601f10611a0457610100808354040283529160200191611a2f565b820191906000526020600020905b815481529060010190602001808311611a1257829003601f168201915b5050505050815260200160048201548152602001600582015481526020016006820160009054906101000a900473ffffffffffffffffffffffffffffffffffffffff1673ffffffffffffffffffffffffffffffffffffffff1673ffffffffffffffffffffffffffffffffffffffff1681526020016007820160009054906101000a900473ffffffffffffffffffffffffffffffffffffffff1673ffffffffffffffffffffffffffffffffffffffff1673ffffffffffffffffffffffffffffffffffffffff1681526020016007820160149054906101000a900460ff166003811115611b1d57611b1c612736565b5b6003811115611b2f57611b2e612736565b5b815260200160088201805480602002602001604051908101604052809291908181526020018280548015611bb857602002820191906000526020600020905b8160009054906101000a900473ffffffffffffffffffffffffffffffffffffffff1673ffffffffffffffffffffffffffffffffffffffff1681526020019060010190808311611b6e575b5050505050815250509050806000015181602001518260400151836060015184608001518560a001518660c001518760e001518861010001518961012001519b509b509b509b509b509b509b509b509b509b5050509193959799509193959799565b8160006003811115611c2f57611c2e612736565b5b60ff16600282604051611c4291906129d8565b908152602001604051809103902060070160149054906101000a900460ff166003811115611c7357611c72612736565b5b60ff1603611cb6576040517f08c379a0000000000000000000000000000000000000000000000000000000008152600401611cad90612deb565b60405180910390fd5b6000600460009054906101000a900473ffffffffffffffffffffffffffffffffffffffff1673ffffffffffffffffffffffffffffffffffffffff16636f77926b336040518263ffffffff1660e01b8152600401611d139190612a4f565b602060405180830381865afa158015611d30573d6000803e3d6000fd5b505050506040513d601f19601f82011682018060405250810190611d549190612a8f565b90506000600285604051611d6891906129d8565b90815260200160405180910390209050838160070160146101000a81548160ff02191690836003811115611d9f57611d9e612736565b5b02179055507fb1644669494c2f4452e57d65b6d33a18024774010ab8ea56df1a9fec4fab5c858460026003811115611dda57611dd9612736565b5b866003811115611ded57611dec612736565b5b14611e2d576040518060400160405280600f81526020017f50726f6475637420726566757365640000000000000000000000000000000000815250611e64565b6040518060400160405280601181526020017f50726f647563742076616c6964617465640000000000000000000000000000008152505b604051611e7292919061316a565b60405180910390a15050505050565b828054828255906000526020600020908101928215611efa579160200282015b82811115611ef95782518260006101000a81548173ffffffffffffffffffffffffffffffffffffffff021916908373ffffffffffffffffffffffffffffffffffffffff16021790555091602001919060010190611ea1565b5b509050611f079190611f4b565b5090565b508054611f1790612a1e565b6000825580601f10611f295750611f48565b601f016020900490600052602060002090810190611f479190611f4b565b5b50565b5b80821115611f64576000816000905550600101611f4c565b5090565b6000604051905090565b600080fd5b600080fd5b600080fd5b600080fd5b6000601f19601f8301169050919050565b7f4e487b7100000000000000000000000000000000000000000000000000000000600052604160045260246000fd5b611fcf82611f86565b810181811067ffffffffffffffff82111715611fee57611fed611f97565b5b80604052505050565b6000612001611f68565b905061200d8282611fc6565b919050565b600067ffffffffffffffff82111561202d5761202c611f97565b5b61203682611f86565b9050602081019050919050565b82818337600083830152505050565b600061206561206084612012565b611ff7565b90508281526020810184848401111561208157612080611f81565b5b61208c848285612043565b509392505050565b600082601f8301126120a9576120a8611f7c565b5b81356120b9848260208601612052565b91505092915050565b6000602082840312156120d8576120d7611f72565b5b600082013567ffffffffffffffff8111156120f6576120f5611f77565b5b61210284828501612094565b91505092915050565b600081519050919050565b600082825260208201905092915050565b6000819050602082019050919050565b600081519050919050565b600082825260208201905092915050565b60005b83811015612171578082015181840152602081019050612156565b60008484015250505050565b600061218882612137565b6121928185612142565b93506121a2818560208601612153565b6121ab81611f86565b840191505092915050565b600073ffffffffffffffffffffffffffffffffffffffff82169050919050565b60006121e1826121b6565b9050919050565b6121f1816121d6565b82525050565b6000819050919050565b61220a816121f7565b82525050565b6000608083016000830151848203600086015261222d828261217d565b915050602083015161224260208601826121e8565b506040830151848203604086015261225a828261217d565b915050606083015161226f6060860182612201565b508091505092915050565b60006122868383612210565b905092915050565b6000602082019050919050565b60006122a68261210b565b6122b08185612116565b9350836020820285016122c285612127565b8060005b858110156122fe57848403895281516122df858261227a565b94506122ea8361228e565b925060208a019950506001810190506122c6565b50829750879550505050505092915050565b6000602082019050818103600083015261232a818461229b565b905092915050565b61233b816121f7565b811461234657600080fd5b50565b60008135905061235881612332565b92915050565b600080600080600060a0868803121561237a57612379611f72565b5b600086013567ffffffffffffffff81111561239857612397611f77565b5b6123a488828901612094565b955050602086013567ffffffffffffffff8111156123c5576123c4611f77565b5b6123d188828901612094565b945050604086013567ffffffffffffffff8111156123f2576123f1611f77565b5b6123fe88828901612094565b935050606086013567ffffffffffffffff81111561241f5761241e611f77565b5b61242b88828901612094565b925050608061243c88828901612349565b9150509295509295909350565b6000806000806080858703121561246357612462611f72565b5b600085013567ffffffffffffffff81111561248157612480611f77565b5b61248d87828801612094565b945050602085013567ffffffffffffffff8111156124ae576124ad611f77565b5b6124ba87828801612094565b935050604085013567ffffffffffffffff8111156124db576124da611f77565b5b6124e787828801612094565b92505060606124f887828801612349565b91505092959194509250565b61250d816121d6565b811461251857600080fd5b50565b60008135905061252a81612504565b92915050565b6000806040838503121561254757612546611f72565b5b600083013567ffffffffffffffff81111561256557612564611f77565b5b61257185828601612094565b92505060206125828582860161251b565b9150509250929050565b600080604083850312156125a3576125a2611f72565b5b600083013567ffffffffffffffff8111156125c1576125c0611f77565b5b6125cd85828601612094565b925050602083013567ffffffffffffffff8111156125ee576125ed611f77565b5b6125fa85828601612094565b9150509250929050565b61260d816121f7565b82525050565b60006020820190506126286000830184612604565b92915050565b6000806040838503121561264557612644611f72565b5b600083013567ffffffffffffffff81111561266357612662611f77565b5b61266f85828601612094565b925050602061268085828601612349565b9150509250929050565b600082825260208201905092915050565b60006126a682612137565b6126b0818561268a565b93506126c0818560208601612153565b6126c981611f86565b840191505092915050565b6126dd816121d6565b82525050565b600060808201905081810360008301526126fd818761269b565b905061270c60208301866126d4565b818103604083015261271e818561269b565b905061272d6060830184612604565b95945050505050565b7f4e487b7100000000000000000000000000000000000000000000000000000000600052602160045260246000fd5b6004811061277657612775612736565b5b50565b600081905061278782612765565b919050565b600061279782612779565b9050919050565b6127a78161278c565b82525050565b600081519050919050565b600082825260208201905092915050565b6000819050602082019050919050565b60006127e583836121e8565b60208301905092915050565b6000602082019050919050565b6000612809826127ad565b61281381856127b8565b935061281e836127c9565b8060005b8381101561284f57815161283688826127d9565b9750612841836127f1565b925050600181019050612822565b5085935050505092915050565b6000610140820190508181036000830152612877818d61269b565b9050818103602083015261288b818c61269b565b9050818103604083015261289f818b61269b565b905081810360608301526128b3818a61269b565b90506128c26080830189612604565b6128cf60a0830188612604565b6128dc60c08301876126d4565b6128e960e08301866126d4565b6128f761010083018561279e565b81810361012083015261290a81846127fe565b90509b9a5050505050505050505050565b6004811061292857600080fd5b50565b60008135905061293a8161291b565b92915050565b6000806040838503121561295757612956611f72565b5b600083013567ffffffffffffffff81111561297557612974611f77565b5b61298185828601612094565b92505060206129928582860161292b565b9150509250929050565b600081905092915050565b60006129b282612137565b6129bc818561299c565b93506129cc818560208601612153565b80840191505092915050565b60006129e482846129a7565b915081905092915050565b7f4e487b7100000000000000000000000000000000000000000000000000000000600052602260045260246000fd5b60006002820490506001821680612a3657607f821691505b602082108103612a4957612a486129ef565b5b50919050565b6000602082019050612a6460008301846126d4565b92915050565b60048110612a7757600080fd5b50565b600081519050612a8981612a6a565b92915050565b600060208284031215612aa557612aa4611f72565b5b6000612ab384828501612a7a565b91505092915050565b60008190508160005260206000209050919050565b60006020601f8301049050919050565b600082821b905092915050565b600060088302612b1e7fffffffffffffffffffffffffffffffffffffffffffffffffffffffffffffffff82612ae1565b612b288683612ae1565b95508019841693508086168417925050509392505050565b6000819050919050565b6000612b65612b60612b5b846121f7565b612b40565b6121f7565b9050919050565b6000819050919050565b612b7f83612b4a565b612b93612b8b82612b6c565b848454612aee565b825550505050565b600090565b612ba8612b9b565b612bb3818484612b76565b505050565b5b81811015612bd757612bcc600082612ba0565b600181019050612bb9565b5050565b601f821115612c1c57612bed81612abc565b612bf684612ad1565b81016020851015612c05578190505b612c19612c1185612ad1565b830182612bb8565b50505b505050565b600082821c905092915050565b6000612c3f60001984600802612c21565b1980831691505092915050565b6000612c588383612c2e565b9150826002028217905092915050565b612c7182612137565b67ffffffffffffffff811115612c8a57612c89611f97565b5b612c948254612a1e565b612c9f828285612bdb565b600060209050601f831160018114612cd25760008415612cc0578287015190505b612cca8582612c4c565b865550612d32565b601f198416612ce086612abc565b60005b82811015612d0857848901518255600182019150602085019450602081019050612ce3565b86831015612d255784890151612d21601f891682612c2e565b8355505b6001600288020188555050505b505050505050565b7f4e487b7100000000000000000000000000000000000000000000000000000000600052601160045260246000fd5b600060ff82169050919050565b6000612d8182612d69565b915060ff8203612d9457612d93612d3a565b5b600182019050919050565b7f50726f6475637420646f6573206e6f7420657869737473000000000000000000600082015250565b6000612dd560178361268a565b9150612de082612d9f565b602082019050919050565b60006020820190508181036000830152612e0481612dc8565b9050919050565b7f4d757374206265207468652070726f64756374206f776e657220746f2070657260008201527f666f726d207468697320616374696f6e00000000000000000000000000000000602082015250565b6000612e6760308361268a565b9150612e7282612e0b565b604082019050919050565b60006020820190508181036000830152612e9681612e5a565b9050919050565b60006080820190508181036000830152612eb7818761269b565b90508181036020830152612ecb818661269b565b90508181036040830152612edf818561269b565b9050612eee6060830184612604565b95945050505050565b7f50726f64756374206e6f742076616c6964617465642079657400000000000000600082015250565b6000612f2d60198361268a565b9150612f3882612ef7565b602082019050919050565b60006020820190508181036000830152612f5c81612f20565b9050919050565b7f4d75737420626520612073696d706c65207573657220746f20706572666f726d60008201527f207468697320616374696f6e0000000000000000000000000000000000000000602082015250565b6000612fbf602c8361268a565b9150612fca82612f63565b604082019050919050565b60006020820190508181036000830152612fee81612fb2565b9050919050565b6000602082019050818103600083015261300f818461269b565b905092915050565b7f48696768206e756d626572206f6620636f756e74657266656974207265706f7260008201527f74732e20496e7665737469676174696f6e206e65656465642e00000000000000602082015250565b600061307360398361268a565b915061307e82613017565b604082019050919050565b600060208201905081810360008301526130a281613066565b9050919050565b7f4f6e6c792070726f64756374206f776e65722063616e207472616e736665722060008201527f70726f6475637400000000000000000000000000000000000000000000000000602082015250565b600061310560278361268a565b9150613110826130a9565b604082019050919050565b60006020820190508181036000830152613134816130f8565b9050919050565b7f4e487b7100000000000000000000000000000000000000000000000000000000600052603260045260246000fd5b600060408201905061317f600083018561279e565b8181036020830152613191818461269b565b9050939250505056fea2646970667358221220952d6e6b8db2c400f1ebaedc593fd9228e1c69c2d416105a293d481889f0fdea64736f6c63430008180033",
  "linkReferences": {},
  "deployedLinkReferences": {}
}